:020000002CC012
:10000200FECFFDCFFCCFFBCFFACFF9CFF8CF53C055
:10001200F6CFF5CFF4CFF3CFF2CFF1CFF0CFEFCFD2
:10002200EECFEDCF00000000000000000000000055
:100032003E3E3E3E4E512046616972793C3C3C3C1C
:10004200000080C00100020026000A00040028000F
:100052000200600144000000F894EE27ECBBF1E0DE
:10006200FBBFEBBFE5BFF8E1F1BDE1BD8DE0A2E072
:10007200BB27ED938A95E9F780E094E0A0E6ED9343
:100082000197E9F7E6E4F0E085919591009761F038
:10009200A591B59105901590BF01F00105900D92C3
:1000A2000197E1F7FB01F0CFEFE5EDBFE4E0EEBF32
:1000B200C0E6D1E03DC0EA93FA93EFB7EA931BD1D1
:1000C200F20131962F01F30131963F01F40131968D
:1000D2004F01F50131965F01ECEDF5E04E165F063A
:1000E20038F0689420F8F60131966F0144245524C3
:1000F200E4E6F0E06E167F0620F0689421F86624AC
:100102007724E8E2F0E0CE16DF0620F0689422F8C9
:10011200CC24DD24E8ECF0E0AE16BF0620F06894B3
:1001220023F8AA24BB24E991EFBFF991E99118952C
:10013200E0E0E8BBE7BBE5BBE4BBE2BBE1BBE3BF9E
:10014200E2BFEFBDE3E0EEBDD6D0E0E0E7BDE6BD45
:10015200EBBDEABDE9BDE8BDE2BDE5BDE4BDE3BD81
:10016200E5BFE4E0E9BFE0E0EAB9E0E8E8B9E0E0F1
:10017200E0BFE6B9EDB9E6BFE0E1EA9392D0EFE184
:10018200E1BDEFE0E1BD7894E2E3F0E0B9D078D0F0
:10019200ECEBF2E0B8D042D0FFCFFFCFE881E071C4
:1001A20011F0949A01C09498E881E07211F0959A46
:1001B20001C09598E881E07411F0969A01C0969872
:1001C200E881E07811F0979A01C097988BE08A95C0
:1001D200F1F7939A8BE18A95F1F793988BE18A95DF
:1001E200F1F787C0E88191D0E881E295E883E88160
:1001F2008CD088EC90E00197F1F77BC0E881F0E0C9
:10020200E05AFE4FE081A981EA0F81D0E981E093B3
:100212006401E881E093650122960895E2E077D0D7
:10022200E3E0F0E070D0ECE072D0E1E070D0E3E027
:10023200F0E069D0E0E0E0936501E09364010895A5
:10024200A881AA3031F0E0916601A0916401AE1755
:1002520068F0E0E0EA93E0916501EF5FE093650109
:10026200EA93CCDFA881AA3009F443C0E09164018B
:10027200EF5FE0936401919AE88149D0919839C087
:100282001A93E981FA813196E983FA833197E491ED
:100292001E2FE03019F01A93D3DFF3CF1881239683
:1002A20008958C9A8D9A8E9A8F9A8B9A899A8A9AA5
:1002B200939891989298E881E0936601E058E093D0
:1002C2006201E881E054E0936301E4E1F0E01BD0D5
:1002D200E0E31BD01ED01DD022D0E0E216D01FD00A
:1002E200E8E215D0E4E013D0E5E811D0E6E00FD063
:1002F20095DF21960895EFEFEDBDE5E0ECBD0895A1
:10030200FA93EA930895FCDF0FC0EA9347CFEA938A
:1003120069CF80E991E00197F1F7E0E3F6CF80E958
:1003220091E00197F1F70895E991F991309639F04A
:1003320080EA9FE00197F1F7A8953197C9F70895F0
:00000001FF
