:0400000017C0FECF58
:10000400FDCFFCCFFBCFFACF1EC1F8CFF7CFF6CF91
:10001400F5CFF4CFF3CFF2CFF1CFF0CFEFCFEECFD8
:10002400EDCF80C00200880126000000F894EE277E
:10003400ECBBF1E0FBBFEBBFE5BFF8E1F1BDE1BD17
:100044008DE0A2E0BB27ED938A95E9F780E094E088
:10005400A0E6ED930197E9F7E8E2F0E08591959148
:10006400009761F0A591B59105901590BF01F0013D
:1000740005900D920197E1F7FB01F0CFEFE5EDBF9D
:10008400E4E0EEBFC0E6D1E0DFC0E0E0F0E060E035
:1000940070E0FBD103D20BD213D21BD2EFEFE1BB42
:1000A400909880EA9FE00197F1F7909A80EA8A9508
:1000B400F1F79098EEEFE1BB809BFECF8099FECFE5
:1000C400809BFECF06D212D21BD27CF429D22BD233
:1000D4008099FECF2BD218F02CD234D2F1D13CD25D
:1000E40051D2809BFECF51D2EFCFF3D1FFD108D2B2
:1000F4007CF416D218D28099FECF18D218F019D2F7
:100104004DD2D5D129D23ED2809BFECF3ED2EFCF65
:10011400E0D1ECD1F5D17CF403D205D28099FECFA5
:1001240005D218F006D244D2B9D116D22BD2809B74
:10013400FECF2BD2EFCFCDD1D9D1E2D17CF4F0D107
:10014400F2D18099FECFF2D118F0F3D13BD29DD1F8
:1001540003D218D2809BFECF18D2EFCFBAD1C6D12A
:10016400CFD1F4F4DDD1DFD18099FECFDFD190F08F
:10017400E0D1A0918401B091850180918601909194
:1001840087018FD2E0938401F09385016093860107
:1001940070938701E1D1F6D1809BFECFF6D1E0CFF9
:1001A40098D11AD222D20ED2E0936801F093690159
:1001B40060936A0170936B011ED217D2EFD1E09362
:1001C4006C01F0936D0160936E0170936F01EFEF1A
:1001D400E1BB909A08952C9717D2E4E6F0E060E032
:1001E40070E0C0D2E887F9876A877B8712D263D22E
:1001F400EAE0F0E060E070E0B5D2EC83FD836E836A
:100204007F8307D2DBD252D27F936F93FF93EF9316
:10021400EC81FD816E817F81AAE0B0E080E090E016
:1002240077D2AF91BF918F919F9145D2BDD2ED8589
:10023400EA93ED85F8D1E885F8D1EC81F6D1E8812F
:10024400F4D1629608951895EFEFE8BBE0E0E7BBC0
:10025400EFEFE5BBECEFE4BBE0E0E2BBE1BB92D146
:100264005FD1E0E0EFBDEDE0EEBDE0E0EDBDECBD63
:10027400E7BDE6BDEDE3EBBDE9E0EABDE0E0E9BDE5
:10028400E8BDE2BDE5BDE4BDE3BDE5BFE0E1E9BF36
:10029400E0E0EAB9E0E8E8B9E0E0E0BFE6B9EDB9EA
:1002A400E6BFE0E1EA93C8D0E8EEF3E0C1D1EDDEC9
:1002B400C2D17ED147D172D1E0937001F093710124
:1002C4006093720170937301BFD1A0917001B091DA
:1002D400710180917201909173017DD2B9F5BDD104
:1002E400A2D17AD166D2B9D1BBD1A5D162D2E5E08F
:1002F400EA93E0E0B5D1E0916801F0916901609181
:100304006A0170916B0155D2EBE0EA93E0E0A8D169
:10031400A9D189D170D14DD2A5D1A2D1E0917801D2
:10032400F091790160917A0170917B0142D2E5E00C
:10033400EA93E1E095D1E0916C01F0916D01609157
:100344006E0170916F0135D2EBE012C086D16BD192
:10035400E0917001F09171016091720170917301EB
:1003640028D27BD17DD17ED15ED16ED122D2E0E084
:10037400EA93E1E075D198CFFFCFE881E07111F005
:10038400949A01C09498E881E07211F0939A01C0A4
:100394009398E881E07411F0929A01C09298E881F0
:1003A400E07811F0919A01C091988BE08A95F1F769
:1003B400959A8BE18A95F1F795988BE18A95F1F7F7
:1003C40062C0E88153D1E881E295E883E8814ED1A7
:1003D40088EC90E00197F1F756C0E881F0E0E85727
:1003E400FE4FE081A981EA0F43D1598048802296CB
:1003F4000895E2E03DD1E3E0F0E01AD1ECE038D139
:10040400E1E036D1E3E0F0E013D1E0E04E2E5E2EE1
:100414000895A881AA3011F0571440F0E0E0EA935F
:1004240043944A92DADFA881AA3069F15394979AE7
:10043400E8811ED1979827C08C9A8B9A8A9A899AB8
:100444008D9A8F9A8E9A9598979896987880E88145
:10045400E058E0938A01E881E054E0938B01E4E101
:10046400F0E0E6D0E0E302D105D104D109D1E0E225
:10047400FDD006D1E8E2FCD0E4E0FAD0E5E8F8D01B
:10048400E6E0F6D0B6DF21960895E0938001F0937C
:10049400810160938201709383010895E0937C014C
:1004A400F0937D0160937E0170937F010895E09342
:1004B4007801F093790160937A0170937B01089538
:1004C400E0937401F0937501609376017093770162
:1004D4000895E0E8F0E060E070E0E0936401F093F8
:1004E400650160936601709367010895E0E0E0930D
:1004F4006001E0936101E0936201E0936301089578
:10050400A0916001B09161018091620190916301B9
:10051400A830E0E0BE07E0E08E07E0E09E07089523
:10052400E0E0E2BF0895E2E0E3BF0895E2B7E13618
:100534000895E0916401F091650160916601709104
:1005440067010895A0917401B091750180917601BD
:1005540090917701A6D00895A0916401B0916501AE
:100564008091660190916701E2E0F0E060E070E064
:10057400F9D0E0936401F093650160936601709390
:100584006701CECFE0E0E3BF0895A0E6B1E002D179
:10059400EF5FFF4F6F4F7F4F02D10895A091780115
:1005A400B091790180917A0190917B017AD008957C
:1005B400A0917C01B0917D0180917E0190917F0199
:1005C40070D00895A0918001B09181018091820141
:1005D4009091830166D00895E0917C01F0917D01B2
:1005E40060917E0170917F010895A0E0B1E080E008
:1005F40090E08ED00895E0917401F09175016091BE
:100604007601709177010895AE85BF8588899989AF
:100614000895E885F9856A857B85A4E6B0E080E0E5
:1006240090E076D0F1CFEA93D8CEE05DEA93F1CEB4
:10063400FA93EA932AC0E0918001F09181016091DC
:100644008201709183010895E0918401F091850104
:1006540060918601709187010895E0E0EA9308951E
:10066400EA93B9CDE0E0EA93E1E00895EA9385CE18
:10067400EA93A7CE80E991E00197F1F7E0E3F6CFA2
:1006840080E991E00197F1F70895E991F9913096A5
:1006940039F080EA9FE00197F1F7A8953197C9F7FF
:1006A4000895EA0FFB1F681F791F0895EA1BFB0BCF
:1006B400680B790B0895AE1BBF0B860B970B08953F
:1006C400F09560957095E195FF4F6F4F7F4F0895BA
:1006D4007A9F702D6B9F700DF89F700DE99F700DC0
:1006E4006A9F602D710DFB9F600D711DE89F600D69
:1006F400711D8827FA9FF02D610D781FEB9FF00D77
:10070400611D781FEA9FE02DF10D681F781F089581
:100714002ED0DEDF0EF4D4DF08953F934F935F9322
:10072400002411244427552730E2AA0FBB1F881F39
:10073400991F001C111C441F551F0E1A1F0A460B3B
:10074400570B28F40E0E1F1E461F571F01C0A16031
:100754003A9559F7FD01BC01D001CA015F914F914F
:100764003F91089504D0D9DF0EF4AADF0895E894E8
:1007740077FF02C0A5DF689497FF0BC00024A09503
:10078400B095809590951196801D901D00F8039466
:1007940000FA0895ED91FD916D917D9108957E93F8
:1007A4006E93FE93EE930895A883B9838A839B8303
:1007B40008957A936A93FA93EA930895182E862FEC
:1007C400612D192E972F712D1B2EBF2FF12D1A2E4F
:1007D400AE2FE12D0895EA17FB07680779070895FE
:00000001FF
