:060000001DC0FECFFDCF84
:10000600FCCFFBCFFACF09C1F8CFF7CFF6CFF5CFAC
:10001600F4CFF3CFF2CFF1CFF0CFEFCFEECFEDCFDE
:10002600000000002E0080C004000600260002002A
:1000360084012C000000F894EE27ECBBF1E0FBBF36
:10004600EBBFE5BFF8E1F1BDE1BD8DE0A2E0BB2766
:10005600ED938A95E9F780E094E0A0E6ED930197A9
:10006600E9F7EEE2F0E085919591009761F0A591B0
:10007600B59105901590BF01F00105900D9201977D
:10008600E1F7FB01F0CFEFE5EDBFE4E0EEBFC0E640
:10009600D1E01DC114D27F936F93FF93EF9340D2AB
:1000A600AF91BF918F919F9145D2EAE2F0E051D294
:1000B600CBD10BC004D27F936F93FF93EF9330D2D3
:1000C600AF91BF918F919F9135D2E881E05DEA9320
:1000D600A8D162960895E0E0F0E060E070E03CD2DE
:1000E60044D24CD254D25CD2EFEFE1BB909880EA76
:1000F6009FE00197F1F7909A80EA8A95F1F7909838
:10010600EEEFE1BB809BFECF8099FECF809BFECFBA
:1001160047D253D25CD2BCF46AD26CD28099FECF5D
:100126006CD258F06DD2A0916401B09165018091B6
:10013600660190916701D4D22AD26BD280D2809B7D
:10014600FECF80D2E7CF2CD238D241D27CF44FD228
:1001560051D28099FECF51D218F052D27CD20ED213
:1001660058D26DD2809BFECF6DD2EFCF19D225D259
:100176002ED2BCF43CD23ED28099FECF3ED258F06D
:100186003FD2A0916C01B0916D0180916E0190916A
:100196006F01A6D2EAD13DD252D2809BFECF52D277
:1001A600E7CFFED10AD213D27CF421D223D2809992
:1001B600FECF23D218F024D258D2CED12AD23FD2A3
:1001C600809BFECF3FD2EFCFEBD1E0916C01F09157
:1001D6006D0160916E0170916F0151D246D2E0932C
:1001E6007801F093790160937A0170937B01E09135
:1001F6006401F091650160916601709167013FD2DB
:100206002AD2E0937C01F0937D0160937E01709386
:100216007F01EFEFE1BB909A08950A921A92FA9243
:100226006A937A938A939A93AA93BA93EA93FA93E0
:10023600EFB7EA93F30131963F01A0E8B1E0CED2E1
:10024600EF5FFF4F6F4F7F4FCED2A0918001B091ED
:1002560081018091820190918301A038E1E5BE077A
:10026600E1E08E07E0E09E0731F4A4E0B0E0D7D2EB
:100276003196E5D23197A4E0B0E0D1D2E83EA3E0D2
:10028600FA0729F4F894C1D0EFEFE5BBF4CFE9E122
:10029600FCE1E615F70521F4AC98F40131964F011F
:1002A600E0E2FCE1E615F70519F466247724AC9A3A
:1002B60012DFE991EFBFF991E991B991A99199916D
:1002C600899179916991F990199009901895EFEFB4
:1002D600E8BBE0E0E7BBEFEFE5BBECEFE4BBE0E05B
:1002E600E2BBE1BBACD183D1E0E0EFBDEDE0EEBD1A
:1002F600E0E0EDBDECBDE7BDE6BDEDE3EBBDE9E05D
:10030600EABDE0E0E9BDE8BDE2BDE5BDE4BDE3BDB3
:10031600E5BFE0E1E9BFE0E0EAB9E0E8E8B9E0E03E
:10032600E0BFE6B9EDB9E6BFE0E1EA939ED0789486
:10033600ACD1ABD15ED0E0917801F09179016091BA
:100346007A0170917B0159D2A3D19FD1A3DEA0E09F
:10035600B0E0A1D19AD19EDE98D19AD14AD0E0914F
:100366007C01F0917D0160917E0170917F0145D203
:100376008FD18ED18FDEA2E0B0E08DD189D18ADE19
:10038600F401C5D13AD2EDE0EA937FD193DED0CF26
:10039600FFCFE881E07111F0949A01C09498E8814A
:1003A600E07211F0939A01C09398E881E07411F01D
:1003B600929A01C09298E881E07811F0919A01C072
:1003C60091988BE08A95F1F7959A8BE18A95F1F7EA
:1003D60095988BE18A95F1F770C0E88162D1E88142
:1003E600E295E883E8815DD188EC90E00197F1F72A
:1003F60064C0E881F0E0EC57FE4FE081A981EA0F86
:1004060052D14980B88022960895E2E04CD14DD170
:10041600ECE049D13DD1E1DF48D1E0E0BE2E4E2EE1
:100426000895A881AA3011F04A1440F02ED1B39451
:10043600BA92DFDFA881AA3009F43FC04394979AA5
:10044600E88131D1979839C01A93E981FA813196BA
:10045600E983FA833197E4911E2FE03019F01A935D
:10046600E0DFF3CF1881239608958C9A8B9A8A9AA7
:10047600899A8D9A8F9A8E9A959897989698A88029
:10048600E881E058E0938601E881E054E093870133
:10049600E4E1F0E05ED018D1E0E303D10AD109D15E
:1004A6000ED1E0E2FED00BD1E8E2FDD0E4E0FBD0D5
:1004B600E5E8F9D0E6E0F7D0A8DF219608952C9775
:1004C600AE85BF8588899989E4E6F0E060E070E052
:1004D6006DD1E887F9876A877B87A4E6B0E080E07C
:1004E60090E03AD1AE85BF858889998903D1EAE043
:1004F600F0E060E070E05AD1EC83FD836E837F8389
:10050600E885F9856A857B85A4E6B0E080E090E021
:1005160023D1AE85BF858889998974D1E6D008959F
:10052600EC81FD816E817F81AAE0B0E080E090E001
:1005360013D10895DFD05CD1ED85EA93ED85EA937A
:1005460058DFE885E05DEA936CDFEC81E05DEA93D5
:1005560068CFFA93EA930895E0937001F0937101DE
:1005660060937201709373010895E0936C01F093A8
:100576006D0160936E0170936F010895E0936801B9
:10058600F093690160936A0170936B010895E0939B
:100596006401F093650160936601709367010895A5
:1005A600E0E8F0E060E070E0E0937401F09375013C
:1005B60060937601709377010895E0E0E09360011F
:1005C600E0936101E0936201E09363010895A091D5
:1005D6006001B09161018091620190916301A83040
:1005E600E0E0BE07E0E08E07E0E09E070895E0E069
:1005F600E2BF0895E2E0E3BF0895E2B7E136089569
:10060600E0917401F0917501609176017091770126
:100616000895A0917401B091750180917601909131
:100626007701E2E0F0E060E070E0C0D0E0937401B2
:10063600F09375016093760170937701D8CFE0E06F
:10064600E3BF0895A0E6B1E0C9D0EF5FFF4F6F4F5B
:100656007F4FC9D00895A0916801B091690180913A
:100666006A0190916B013CD00895A0917001B09100
:100676007101809172019091730132D00895A0E0CA
:10068600B1E080E090E068D00895E0E0EA93089554
:10069600E1E0EA930895C3D03AD0AFD0E7E0EA9319
:1006A6000895EA9376CEEA9398CEE3E0F0E051DF40
:1006B6000BC080E991E00197F1F7E0E3F2CF80E922
:1006C60091E00197F1F70895E991F991309639F0A3
:1006D60080EA9FE00197F1F7A8953197C9F7089549
:1006E600EA0FFB1F681F791F0895EA1BFB0B680BB7
:1006F600790B0895AE1BBF0B860B970B0895F095EB
:1007060060957095E195FF4F6F4F7F4F08956F2F5E
:10071600660F660B762F08957A9F702D6B9F700D6E
:10072600F89F700DE99F700D6A9F602D710DFB9FFC
:10073600600D711DE89F600D711D8827FA9FF02DD1
:10074600610D781FEB9FF00D611D781FEA9FE02D6C
:10075600F10D681F781F08952ED0DEDF0EF4CFDF6F
:1007660008953F934F935F93002411244427552700
:1007760030E2AA0FBB1F881F991F001C111C441FC3
:10078600551F0E1A1F0A460B570B28F40E0E1F1E76
:10079600461F571F01C0A1603A9559F7FD01BC01DC
:1007A600D001CA015F914F913F91089504D0D9DFDE
:1007B6000EF4A5DF0895E89477FF02C0A0DF6894E1
:1007C60097FF0BC00024A095B09580959095119643
:1007D600801D901D00F8039400FA0895ED91FD9197
:1007E6006D917D9108957E936E93FE93EE93089599
:1007F600A883B9838A839B8308957A936A93FA932D
:10080600EA930895182E862F612D192E972F712D94
:100816001B2EBF2FF12D1A2EAE2FE12D0895119606
:1008260002D0FE2F1197E199FECFFF93FFB7F89400
:10083600AEBBBFBBE09AEDB3FFBFFF91089507D0F3
:100846001196EF93EF2F03D0EF9111970895E19B47
:1008560002C0A895FCCF9FB7F894AEBBBFBBE09A89
:100866008DB3E81719F0EDBBE29AE19A9FBF0895A0
:00000001FF
