:0600000036C0FECFFDCF6B
:10000600FCCFFBCFFACF22C1F8CFF7CFF6CFF5CF93
:10001600F4CFF3CFF2CFF1CFF0CFEFCFEECFEDCFDE
:100026000000000000002E005374617274205379A2
:100036007374656D2E2E2E2E2E003E20003E004639
:100046000061006900720079002D0045006C0062B5
:10005600000080C001000200260004000400280001
:100066000200840158000000F894EE27ECBBF1E092
:10007600FBBFEBBFE5BFF8E1F1BDE1BD8DE0A2E05E
:10008600BB27ED938A95E9F780E094E0A0E6ED932F
:100096000197E9F7EAE5F0E085919591009761F01F
:1000A600A591B59105901590BF01F00105900D92AF
:1000B6000197E1F7FB01F0CFEFE5EDBFE4E0EEBF1E
:1000C600C0E6D1E05BC1C9D27F936F93FF93EF93F4
:1000D600F5D2AF91BF918F919F91FAD2ECE2F0E009
:1000E60006D381D20BC0B9D27F936F93FF93EF9360
:1000F600E5D2AF91BF918F919F91EAD2E881E05D01
:10010600EA935FD262960895E0E0F0E060E070E086
:10011600F1D2F9D201D309D311D3EFEFE1BB909815
:1001260080EA9FE00197F1F7909A80EA8A95F1F7C5
:100136009098EEEFE1BB809BFECF8099FECF809B2F
:10014600FECFFCD208D311D3BCF41FD321D38099A0
:10015600FECF21D358F022D3A0916401B09165015E
:100166008091660190916701E9D3DFD220D335D320
:10017600809BFECF35D3E7CFE1D2EDD2F6D27CF429
:1001860004D306D38099FECF06D318F007D331D314
:10019600C3D20DD322D3809BFECF22D3EFCFCED2B4
:1001A600DAD2E3D2BCF4F1D2F3D28099FECFF3D205
:1001B60058F0F4D2A0916C01B0916D0180916E015E
:1001C60090916F01BBD39FD2F2D207D3809BFECF13
:1001D60007D3E7CFB3D2BFD2C8D27CF4D6D2D8D217
:1001E6008099FECFD8D218F0D9D20DD383D2DFD2E0
:1001F600F4D2809BFECFF4D2EFCFA0D2E0916C0177
:10020600F0916D0160916E0170916F0106D3FBD282
:10021600E0937801F093790160937A0170937B0102
:10022600E0916401F091650160916601709167014A
:10023600F4D2DFD2E0937C01F0937D0160937E01DE
:1002460070937F01EFEFE1BB909A08950A921A929C
:10025600FA926A937A938A939A93AA93BA93EA93B1
:10026600FA93EFB7EA93F20131962F01A0E8B1E0D5
:10027600F3D3EF5FFF4F6F4F7F4FF3D3A091800112
:10028600B09181018091820190918301A038E1E5CE
:10029600BE07E1E08E07E0E09E0719F4AAE3B0E0AE
:1002A600C2D2AAE3B0E0F9D3E83EA3E0FA0729F404
:1002B600F89477D1EFEFE5BBF4CFEBE1FCE1E41581
:1002C600F50521F4AC98F30131963F01E0E2FCE13B
:1002D600E415F50519F444245524AC9A20FC0AC00B
:1002E600A0E0AD99A1E0E1E0EA2711F4AD9801C0E4
:1002F600AD9A01C0AD9A08DFE991EFBFF991E99196
:10030600B991A9919991899179916991F9901990E9
:1003160009901895B09910C0999909C089D2E2E759
:10032600F1E0CBD388D2E8E5F2E0C7D3F5CF80D2AF
:100336007AD284D286D2EECF989907C07FD23197EF
:10034600BCD331967BD27DD2F7CFB1990DC09899A7
:1003560006C0AAE3B0E0E0E0F0E0AFD3F8CF6BD29E
:1003660062D27AD27CD2F1CF999907C075D23197F1
:10037600A4D3319671D273D2F7CF0895EFEFE8BBCD
:10038600E0E0E7BBEFEFE5BBECEFE4BBE0E0E2BBB0
:10039600E1BB23D2FAD16ED2E0E0E2BDE5BDE4BD19
:1003A600E3BDE5BFE0E1E9BFE0E0EAB9E0E8E8B9CE
:1003B600E0E0E0BFE6B9EDB9E6BFE0E1EA9324D1BB
:1003C600EEE2F0E068D269D26BD2DFD0E0E4F0E092
:1003D60062D2E4EFF1E067D2E3E4F0E05CD265D20A
:1003E600E5E4F0E058D261D2E7E4F0E054D25DD221
:1003F600E9E4F0E050D259D2EBE4F0E04CD255D229
:10040600EDE4F0E048D251D2EFE4F0E044D24DD230
:10041600E1E5F0E040D249D2E3E5F0E03CD245D256
:10042600E7E4F0E038D241D2E5E5F0E034D23DD25F
:10043600E0E4F0E030D239D2E3E4F0E02CD2AD983B
:10044600ECE2F1E030D2AD9AE4E1F5E02CD2A9D0AD
:1004560011D278945FDF21D220D297D0E091780133
:10046600F091790160917A0170917B0104D318D2E1
:1004760014D229DEE3D11CD210D225DE0ED210D240
:1004860084D0E0917C01F0917D0160917E017091B4
:100496007F01F1D205D204D216DEDED109D200D216
:1004A60012DEF3010AD2E7D2EDE0EA93F6D11BDEC3
:1004B600C5D1359704D21FD30CF4AA98BFD135966F
:1004C600FED114D30CF4AA9AC7D1749701D213D3D0
:1004D6000CF4AB98C1D17496FBD108D30CF4AB9A4B
:1004E60000D2EEE5F1E060E070E044D20E2E02D2DA
:1004F600E4EFF1E060E070E03DD20E2AF2D1E1E8EF
:10050600F1E060E070E03ED20E2AF4D1E0E2F3E0E2
:1005160060E070E037D2E02919F0E89420F803C0D3
:10052600689420F8AD9A96CFFFCFE881E07111F07C
:10053600949A01C09498E881E07211F0939A01C0F0
:100546009398E881E07411F0929A01C09298E8813C
:10055600E07811F0919A01C091988BE08A95F1F7B5
:10056600959A8BE18A95F1F795988BE18A95F1F743
:1005760072C0E881C8D1E881E295E883E881C3D1F9
:1005860088EC90E00197F1F766C0E881F0E0EC575F
:10059600FE4FE081A981EA0FB8D199808880229622
:1005A6000895E2E0B2D1E3E0F0E07DD1ECE0ADD138
:1005B60077D1DFDFE3E0F0E076D1E0E08E2E9E2E0D
:1005C6000895A881AA3011F09B1438F066D183945F
:1005D6008A92DBDFA881AA30F1F19394979AE88199
:1005E60094D1979838C01A93E981FA813196E983B4
:1005F600FA833197E4911E2FE03019F01A93E1DF68
:10060600F3CF1881239608958C9A8B9A8A9A899AA1
:100616008D9A8F9A8E9A959897989698B880E88131
:10062600E058E0938601E881E054E0938701E4E135
:10063600F0E039D1E0E367D16AD169D16ED1E0E269
:1006460062D16BD1E8E261D1E4E05FD1E5E85DD14A
:10065600E6E05BD1A6DF219608952C97AE85BF858F
:1006660088899989E4E6F0E060E070E0DDD1E8870A
:10067600F9876A877B87A4E6B0E080E090E0AAD19C
:10068600AE85BF858889998963D1EAE0F0E060E0AC
:1006960070E0CAD1EC83FD836E837F83E885F9859C
:1006A6006A857B85A4E6B0E080E090E093D1AE85D4
:1006B600BF8588899989E4D146D10895EC81FD8169
:1006C6006E817F81AAE0B0E080E090E083D108955A
:1006D6003FD1CCD1ED85EA93ED85EA9356DFE885E7
:1006E600E05DEA936EDFEC81E05DEA936ACFFA9310
:1006F600EA930895E0937001F0937101609372019B
:10070600709373010895E0936C01F0936D0160930B
:100716006E0170936F010895E0936801F09369018B
:1007260060936A0170936B010895E0936401F093FE
:10073600650160936601709367010895E0E8F0E053
:1007460060E070E0E0937401F093750160937601C8
:10075600709377010895E0E0E0936001E093610112
:10076600E0936201E09363010895A0916001B09166
:1007760061018091620190916301A830E0E0BE07BB
:10078600E0E08E07E0E09E070895E0E0E2BF08950E
:10079600E2E0E3BF0895E2B7E1360895E09174011F
:1007A600F091750160917601709177010895A0919D
:1007B6007401B09175018091760190917701E2E024
:1007C600F0E060E070E030D1E0937401F0937501E1
:1007D6006093760170937701D8CFE0E0E3BF089588
:1007E600A0E6B1E039D1EF5FFF4F6F4F7F4F39D1B0
:1007F6000895A0916801B091690180916A01909174
:100806006B019CD00895A0917001B0917101809107
:1008160072019091730192D00895A0E0B1E080E05A
:1008260090E0D8D0089539D1319647D131970895BF
:10083600A0E1B0E00895A5E3B0E00895F9DF2DD179
:10084600089593D018D1E7E0EA93E0E0EA933BDC21
:10085600ECE2F1E04CDF66C0EEDF1FD1089585D0F3
:100866000AD1E7E0EA93E1E0EA932DDCECE2F1E07D
:100876003EDF58C0E0E0EFBDEDE0EEBDE0E0EDBDEF
:10088600ECBDE7BDE6BDEDE3EBBDE9E0EABDE0E0CA
:10089600E9BDE8BD08952BDFA6CEE0E0EA93089512
:1008A600E1E0EA93089523DF3DC0E8ECF0E0FBCFFA
:1008B6005CD0E1D0E7E0EA93089557D00895A0917F
:1008C6007801B091790180917A0190917B01F5CF01
:1008D600A0917C01B0917D0180917E0190917F0174
:1008E600ECCFA0917801B091790180917A01909135
:1008F6007B010895A0917C01B0917D0180917E01DC
:1009060090917F010895EA9310CEEA9332CE80E962
:1009160091E00197F1F7E0E3F6CF80E991E00197E6
:10092600F1F70895E991F991309639F080EA9FE060
:100936000197F1F7A8953197C9F70895EA0FFB1FBC
:10094600681F791F0895EA1BFB0B680B790B089546
:10095600AE1BBF0B860B970B0895F09560957095AF
:10096600E195FF4F6F4F7F4F08956F2F660F660B10
:10097600762F0895AE17BF0786079707E1E00CF0BC
:10098600EE270895EA17FB0768077907E1E00CF000
:10099600EE2708957A9F702D6B9F700DF89F700D4E
:1009A600E99F700D6A9F602D710DFB9F600D711D93
:1009B600E89F600D711D8827FA9FF02D610D781F45
:1009C600EB9FF00D611D781FEA9FE02DF10D681F6A
:1009D600781F08952ED0DEDF0EF4BFDF08953F9313
:1009E6004F935F93002411244427552730E2AA0F22
:1009F600BB1F881F991F001C111C441F551F0E1A70
:100A06001F0A460B570B28F40E0E1F1E461F571FB4
:100A160001C0A1603A9559F7FD01BC01D001CA0198
:100A26005F914F913F91089504D0D9DF0EF495DF81
:100A36000895E89477FF02C090DF689497FF0BC093
:100A46000024A095B095809590951196801D901DD7
:100A560000F8039400FA0895ED91FD916D917D9152
:100A660008957E936E93FE93EE930895A883B983BB
:100A76008A839B8308957A936A93FA93EA930895F7
:100A8600182E862F612D192E972F712D1B2EBF2FF5
:100A9600F12D1A2EAE2FE12D0895119602D0FE2FBC
:100AA6001197E199FECFFF93FFB7F894AEBBBFBB9A
:100AB600E09AEDB3FFBFFF91089507D01196EF932B
:100AC600EF2F03D0EF9111970895E19B02C0A895EF
:100AD600FCCF9FB7F894AEBBBFBBE09A8DB3E817C7
:100AE60019F0EDBBE29AE19A9FBF0895EA17FB075A
:100AF600680779070895AE17BF0786079707089511
:00000001FF
