:0A0000000C948F000C9400000C9487
:10000A0000000C9400000C9400000C9400000C9466
:10001A0000000C9400000C9400000C9400000C9456
:10002A0000000C9400000C9400000C9400000C9446
:10003A0000000C9400000C9496010C9400000C949F
:10004A0000000C9400000C9400000C9400000C9426
:10005A0000000C9400000C9400000C9400000C9416
:10006A0000000C9400000C9400000C9400000C9406
:10007A0000000C9400000C9400000C9400000C94F6
:10008A0000001027E80364000A00010000100001C4
:10009A001000010000000000000000000000000045
:1000AA0046616972792D456C6162004E68696574B2
:1000BA0020446F3A2536692E252D752563430A4457
:1000CA006F20416D3A2539692E252D752525004465
:1000DA00616F3A20252D6900252D75004E51204665
:1000EA0061697279000080C001002D4E414E0049BD
:1000FA004E460000010002009E000B000005AA0007
:10010A000A000400A00002007305F000010079054E
:10011A00F2000000F894EE27ECBBF1E0F5BFE5BF72
:10012A00E0936C00F8E1F1BDE1BD8DE0A2E0BB27F0
:10013A00ED938A95E9F780E090E1A0E0B1E0ED93D4
:10014A000197E9F7EEEFF0E085919591009761F05C
:10015A00A591B59105901590BF01F00105900D92FA
:10016A000197E1F7FB01F0CFEFEFEDBFE0E1EEBF62
:10017A00C0E0D5E00C949402A79AAF98EEE1F0E0C3
:10018A000E943906AF9AE6E4F0E0C4C10E94490829
:10019A0020E830E0A69AAE988DEC9AE00197F1F744
:1001AA00AE9A8FE68A95F1F7AE98A6989E9BFECFF7
:1001BA009E99FECF9E9BFECF0E943D060830E0E04E
:1001CA001E07DCF40E9442069E99FECFE4B5E13692
:1001DA0068F0F901A0910B05B0910C0580910D050D
:1001EA0090910E050E9447060E944C060E945506F1
:1001FA009E9BFECF0F5F1F4FE1CF0E943D06083046
:10020A00E0E01E07ACF40E9442069E99FECFE4B5D8
:10021A00E13638F0F9010E945F060E9447060E9403
:10022A0068060E9455069E9BFECF0F5F1F4FE7CFC1
:10023A000E943D060830E0E01E07DCF40E944206F8
:10024A009E99FECFE4B5E13668F0F901A091130555
:10025A00B091140580911505909116050E944706E4
:10026A000E9471060E9455069E9BFECF0F5F1F4F8C
:10027A00E1CF0E943D060830E0E01E07ACF40E9480
:10028A0042069E99FECFE4B5E13638F0F9010E94A4
:10029A007A060E9447060E9483060E9455069E9B84
:1002AA00FECF0F5F1F4FE7CFE0911305F0911405C2
:1002BA0060911505709116050E948C060E947A06B7
:1002CA000E944A07E0931B05F0931C0560931D05E5
:1002DA0070931E05E0910B05F0910C0560910D05D8
:1002EA0070910E050E948C060E945F060E944A07C2
:1002FA00E0931F05F0932005609321057093220572
:10030A00E0E0F0E060E070E00E9483060E9471067F
:10031A000E9468060E944C06AE9A0E9450082496D3
:10032A0008950A921A92FA926A937A938A939A93FE
:10033A00AA93BA93EA93FA93EFB7EA93E7E2E2BF92
:10034A00F50131965F01F20131962F01F3013196E1
:10035A003F01F40131964F01E2E3F0E06E167F06A9
:10036A001CF066247724A895E4E6F0E04E165F06B2
:10037A001CF0442455240ADFF401E330A0E0FA0714
:10038A0019F4689420F80DC0E835A2E0FA0719F4C8
:10039A00E89420F806C0E838A3E1FA0711F48824A3
:1003AA009924E991EFBFF991E991B991A9919991AC
:1003BA00899179916991F990199009901895E8E2D3
:1003CA00F3E2AE16BF0684F1AA24BB240E94930668
:1003DA00EF5F0E943608E1500E949306EC3320F149
:1003EA00A6E0B0E0E0E00E943608A4E0B0E00E9497
:1003FA001E0831960E942E083197A0E08699A1E046
:10040A00E0E00E9460071E2E0E9498060E2E0E94AF
:10041A009806E021E12911F0E1E0DE2E879902C079
:10042A00E2E0DE2EC498A8DEE1E0ED1529F4879912
:10043A0003C0A2DEC49ADD24E2E0ED1529F4869910
:10044A0003C09ADEC49ADD2408950E94F803E5E009
:10045A00EA93E0E0EA930E94E903E0E0F5E00E9413
:10046A009F06E5EBF0E0FA93EA930E94A8060E9441
:10047A00D7070E9419080E94A8060E94B5060E9482
:10048A00C6060E94D7070E9419080E94C6060E9443
:10049A00B50688E10E94E6056C96E0E0EA93E1E0A1
:1004AA000E94D306E9EDF0E0FA93EA93A4E0B0E003
:1004BA000E941E080E94D906E0E0EA93E3E00E9447
:1004CA00D306E2EEF0E0FA93EA930E949306FF273E
:1004DA00662777270E94190884E00E94E605289675
:1004EA00EAE0EA93E3E00E94D306EEEDF0E0FA9345
:1004FA00EA93F5010E94D906EFE0EA93E3E0EA9372
:10050A000E94E903E3E2F5E0FA93EA930E942104E8
:10051A00E2E3F0E0FA93EA930E943A070895E0E0F2
:10052A00EBBBEABBEFEFE8BBE7BBE0E1E5BBEFE023
:10053A00E4BBEFEFE2BBE0E0E1BBEFEFE3B9E2B926
:10054A00E0E0E0936200E0936100E0936500E093ED
:10055A006400E0BFE7E0E3BFE7E2E2BFE0E0E1BF5B
:10056A00EEEFEFBDE9E1EEBDE0E0EDBDECBDE7BDCC
:10057A00E6BDE0E5F3ECF7BDE6BDE0E0EBBDEABDC4
:10058A00E9BDE8BD0E94E206E0E0E5BDE4BDE3BDE9
:10059A00EEEFE0938B00E9E1E0938A00E0E0E0937C
:1005AA008900E0938800E3ECE0938100E0E5E093C2
:1005BA008000E0E0E0938700E09386000E94E8066E
:1005CA00E0E0E0936A00EABFE9BFE1E0E7BFE0E00C
:1005DA00E0937D00EAB9E0939A00E0E8E8B9E0E048
:1005EA00E0BDE6B9EDB9E0937400E4E1EA9342D1E3
:1005FA00E6EEF0E0FA93EA932CD110E0143018F406
:10060A00BBDD1F5FFBCFEFD0EFE1E1BDEFE0E1BD66
:10061A007894A0E0B0E0E0E00E943608A1E0B0E003
:10062A00EFEF0E943608A2E0B0E0EFE70E9436083A
:10063A00A3E0B0E0EFEF0E943608A8DD0E94F206C0
:10064A00A537E1E0BE07E0E08E07E0E09E0724F46C
:10065A00E89420F80E94E8060E94F206A837E1E032
:10066A00BE07E0E08E07E0E09E070CF401E00E947E
:10067A00F206E7E7F1E060E070E00E946D070E2EF7
:10068A000E94F206EAE7F1E060E070E00E94650786
:10069A00E02109F002E00E94F206AA37E1E0BE0773
:1006AA00E0E08E07E0E09E070CF003E020FE0BC0BE
:1006BA00E5E5E0938500E0EFE0938400EEE2E09365
:1006CA008300E0EE07C0E0E0E0938500E093840059
:1006DA00E0938300E0938200E02FF0E0E130A0E0B5
:1006EA00FA0759F4E0E4FCE9FBBDEABDECE9E09362
:1006FA007900E0E4E09378001BC0E230A0E0FA075A
:10070A0039F4E0E0F0E0FBBDEABD0E94E20610C069
:10071A00E330A0E0FA0761F4ECE9E0938500E0E455
:10072A00E0938400ECE9E0938300E0E4E093820044
:10073A00A0911F05B0912005809121059091220575
:10074A00A835E2E0BE07E0E08E07E0E09E071CF471
:10075A00E0E5F3EC02C0E0E0F0E0F9BDE8BD2FDE31
:10076A0074DE6CCFFFCFE881E07111F0DC9A01C032
:10077A00DC98E881E07211F0DD9A01C0DD98E88129
:10078A00E07411F0DE9A01C0DE98E881E07811F099
:10079A00DF9A01C0DF9887E08A95F1F7DA9A82E159
:1007AA008A95F1F7DA9882E18A95F1F795C0E8819E
:1007BA00EA93D9DFE881E295E883E881EA93D3DF17
:1007CA0088EB8A95F1F788C0E881F0E0ED58FA4F96
:1007DA00E081A981EA0FEA93EADFC980E881E09320
:1007EA00770522960895E2E00E94FB06ECE0EA9380
:1007FA00DEDFE1E00E94FB06E0E0E0937705CE2E23
:10080A000895A881AA3021F0E0917805CE1668F003
:10081A00E0E0EA93E0917705EF5FE0937705EA93EA
:10082A00D3DFA881AA3009F457C0C394D89AE881C3
:10083A00EA93BDDFD89850C01A93A981BA81ED9185
:10084A00A983BA831E2FE03019F01A93DADFF5CFA5
:10085A000EC01A93E981FA813196E983FA833197B6
:10086A00E4911E2FE03019F01A93CBDFF3CF1881F1
:10087A0023960895D49AD59AD69AD79AD29AD09A84
:10088A00D19ADA98D898D998E881E0937805E0580F
:10089A00E0937505E881E054E0937605E4E1F0E041
:1008AA000E9439060E9401070E9401070E9401075F
:1008BA00E0E2EA9358DF84E191E00197F1F7E8E298
:1008CA00EA9375DFE4E0EA9372DFE5E8EA936FDF23
:1008DA00E6E0EA936CDF87DF219608951A930A937C
:1008EA00AA81BB8112960E941108309759F1AA81F8
:1008FA00BB8114960E9411088F01309761F0023073
:10090A00E0E01E07F0F0F80131978F01AA81BB8160
:10091A001496ED93FC93AA81BB811296ED91FD91F9
:10092A003196FE93EE933197AC81A083AA81BB8165
:10093A000E941108FF232AF0ED91FD913196FE9352
:10094A00EE9306C0AA81BB81EFEFFFEFED93FC9314
:10095A00198108812596089526970E94470810E074
:10096A00AC85BD85E0E0F0E0ED93FC93EA89FB8974
:10097A003196EA8BFB8B3197E4912E2FE03011F4FC
:10098A000C94DE05E12FE03039F4253211F411E040
:10099A0002C00E940A070CC1E130A9F4253219F4F9
:1009AA000E940A0704C112E040E000E02D3211F46F
:1009BA0001E0FEC02B3211F44BE2FAC0203211F4EE
:1009CA0040E2F6C002C0E23039F450E013E02033CE
:1009DA0011F40068EDC004C0E33011F00C94DD0599
:1009EA00203310F02A3308F007C0AAE05A9F502D8E
:1009FA00E22FE0535E0FDCC0E22FE33649F40E9497
:100A0A001307E889F989A481AA930E941907CFC01C
:100A1A00E33741F40E9413070E9421070E9424062B
:100A2A001E2F0AC0E03761F40E9413070E942107B3
:100A3A000E942E061E2F086002600F7730E035C034
:100A4A00E43611F0E93611F4046002C0E53731F4F6
:100A5A00ECE8F0E0EE83FF8315E00DC0E83511F411
:100A6A00086004C0E83711F00C94DC05E6E9F0E010
:100A7A00EE83FF8314E002FF14C00E9413070E9452
:100A8A002B07AB85AA233AF4EA85FB850E944F0718
:100A9A00EA87FB874DE2403011F01F5F01C00B7FF0
:100AAA0004C00E9413070E942B0700FD11C01517EE
:100ABA0078F407FF08C002FF04C00B7F242F1150EF
:100ACA0001C020E301C020E20E940A075150EFCF83
:100ADA00312F01FF17C03030A1F003FF06C0EE81AD
:100AEA00FF812591EE83FF8305C0AE81BF812D91E1
:100AFA00AE83BF830E940A07503009F0515031502B
:100B0A00EACF4BC020E3EE81FF810E941508E887F7
:100B1A00F987EE81FF813296EE83FF83E885F985B6
:100B2A00AA85BB85AE17BF0750F02F5FA885B98588
:100B3A00EA85FB85EA1BFB0BEA87FB87EFCF2A33A3
:100B4A0028F003FF02C0295F01C0295D04FD1AC015
:100B5A00213320F4A885B985119709F409C05317E0
:100B6A0010F000FF01C013C020E207FF0BC020E312
:100B7A00006102FF07C00B7F4A930E941907503099
:100B8A0009F051500E940A07503009F05150315073
:100B9A00A885B985129708F0B5CF00FF08C0503074
:100BAA0031F05150E0E2EA930E941907F8CF10E0C1
:100BBA00DDCEAC85BD850E9411080E944E08649660
:100BCA000895FF92F82E26970E9449080E9433073B
:100BDA00309719F4EFEFFFEF25C0DE0116960E9459
:100BEA0046078D010E943307EE83FF83E0E0E88722
:100BFA00E987DE011A960E9446070E941108FA93B5
:100C0A00EA931A930A93E3E7F4E0FA93EA93FE016C
:100C1A003A96FA93EA93A0DE9F01AE81BF81E0E0A3
:100C2A00EC93F9010E9450082A96FF900895E991E1
:100C3A00F99130971AF4E095F09531960895A991B3
:100C4A00B991EE27FF276D91662311F03196FBCFFC
:100C5A000895AA27BB27E991F9910590002011F080
:100C6A001196FBCFFD010895FA93EA930C943A0783
:100C7A0020E830E000E010E00895E0E0E4BDE2E0C2
:100C8A00E5BD08950E945B070E944A070895E09314
:100C9A000B05F0930C0560930D0570930E050895EE
:100CAA00D901E2E0F0E00E94AD079F01E0E0E4BD77
:100CBA00E5BD0895A0910F05B09110058091110529
:100CCA00909112050895E0930F05F0931005609333
:100CDA001105709312050895E0931305F093140516
:100CEA0060931505709316050895A0911705B091A4
:100CFA0018058091190590911A050895E093170532
:100D0A00F09318056093190570931A050895A0E0E9
:100D1A00B1E080E090E00E9495070895A6E0B0E077
:100D2A000E9422080895A0E08699A1E0E1E00E94CD
:100D3A0060070895FA93EA930E942104E3E2F5E03A
:100D4A00FA93EA930895A0911B05B0911C0580912E
:100D5A001D0590911E05EAE0F0E060E070E008955C
:100D6A000E94DC07FA93EA930E941C0666277727FB
:100D7A000E941908EFEDF0E060E070E00E941908A7
:100D8A000895A0911F05B0912005809121059091A9
:100D9A002205EAE0F0E060E070E00895EA930E943C
:100DAA00E903E3E2F5E0C6CF0E945B070E94190857
:100DBA0084E00E94E60528960895E0E0E093790031
:100DCA00E09378000895E0E0E0938500E0938400E2
:100DDA00E0938300E09382000895A0911B05B091EF
:100DEA001C0580911D0590911E050895EA930E94A5
:100DFA00DC03E3E0F0E038CFE0E3EA930E94B803D3
:100E0A0084E191E00197F1F708952A93ED85FE8533
:100E1A00FA93EA93E989FA8909950895E889F9899B
:100E2A003497E88BF98B0895ED85FE85FA93EA935A
:100E3A00E989FA8909950895A889B98914960E94B9
:100E4A001108EE83FF83FA93EA930895A889B98972
:100E5A0014960E941108EA87FB870895DE011C9602
:100E6A000E9446070E9411080895E991F991309667
:100E7A0039F08DEC9AE00197F1F7A8953197C9F707
:100E8A0008950024AF0DB01D0895EA0FFB1F681FD7
:100E9A00791F0895F195E195F0400895F0956095D0
:100EAA007095E195FF4F6F4F7F4F08956F2F660F33
:100EBA00660B762F0895EA17E1E009F0EE27089508
:100ECA00AE17BF0786079707E1E00CF0EE270895F3
:100EDA00EA17FB0768077907E1E00CF0EE270895A7
:100EEA007A9F702D6B9F700DF89F700DE99F700DA2
:100EFA006A9F602D710DFB9F600D711DE89F600D4B
:100F0A00711D8827FA9FF02D610D781FEB9FF00D58
:100F1A00611D781FEA9FE02DF10D681F781F089563
:100F2A0068D0DEDF0EF4BADF08950024112490E1C0
:100F3A00AA0FBB1F001C111C0E1A1F0A18F40E0E52
:100F4A001F1E01C0A1609A9599F7FD01D00108956D
:100F5A0042D0EBDF0EF49EDF08953F934F935F93E9
:100F6A00002411244427552730E2AA0FBB1F881FEB
:100F7A00991F001C111C441F551F0E1A1F0A460BED
:100F8A00570B28F40E0E1F1E461F571F01C0A160E3
:100F9A003A9559F7FD01BC01D001CA015F914F9101
:100FAA003F91089526D0D9DF0EF478DF0895E894AA
:100FBA0097FF09C0A095B09580959095AF5FBF4FF8
:100FCA008F4F9F4F689477FD69DFC7DFFD01BC0132
:100FDA000EF464DF0895E894F7FF02C05BDF6894BB
:100FEA00B7FF06C0A095B095119600F8039400FAD1
:100FFA000895E89477FF02C051DF689497FF0BC009
:10100A000024A095B095809590951196801D901D0D
:10101A0000F8039400FA0895ED91FC911197089550
:10102A000590F491E02D08957A936A93FA93EA93DE
:10103A000895119602D0FE2F1197E199FECFFF93E2
:10104A00FFB7F894AEBBBFBBE09AEDB3FFBFFF9109
:10105A00089507D01196EF93EF2F03D0EF911197D0
:10106A000895E19B02C0A895FCCF9FB7F894AEBB48
:10107A00BFBBE09A8DB3E81719F0EDBBE29AE19A8B
:10108A009FBF08955A934A933A932A931A930A93BD
:10109A0008955D814C813B812A81198108810895D7
:00000001FF
