:0800000065C0FECFFDCFFCCF6F
:10000800FBCFFACFF9CFF8CF8CC0F6CFF5CFF4CF2E
:10001800F3CFF2CFF1CFF0CFEFCFEECFEDCF102768
:10002800E80364000A00010000100001100001004C
:100038007800010000000000000000002E00543A83
:10004800200020203E202000483A200020202020A8
:1000580020200044616F205472756E672020202094
:10006800202020202020202020202042616E672090
:100078005461790044616F205472756E67202020A6
:1000880020202020202020202020202054752044BB
:100098006F6E6720000001002D4E414E00494E460C
:1000A800000080C0010002003800010078013A0019
:1000B800080004003C0001007B019E0002007F0153
:1000C800AA000000F894EE27ECBBF1E0FBBFEBBF01
:1000D800E5BFF8E1F1BDE1BD8DE0A2E0BB27ED93FE
:1000E8008A95E9F780E094E0A0E6ED930197E9F7B7
:1000F800ECEAF0E085919591009761F0A591B591B2
:1001080005901590BF01F00105900D920197E1F758
:10011800FB01F0CFEFE5EDBFE4E0EEBFC0E6D1E0D4
:10012800F9C18A939A93AA93BA93EA93FA93EFB789
:10013800EA937BD3F20131962F01F30131963F0107
:10014800F40131964F01F50131965F01ECEDF5E0D0
:100158004E165F0620F0689420F844245524E6E9FA
:10016800F0E06E167F0620F0689421F86624772464
:10017800E0E3F5E7AE16BF0690F05CD331965BD5A9
:10018800319758D36F0156D3E03FA0E0FA0728F023
:10019800689422F8A6E0B0E051D3AA24BB24E991E0
:1001A800EFBFF991E991B991A99199918991189520
:1001B8004424552466247724AA24BB24E89420F8F0
:1001C80021F822F8089588249924E881F9818E1667
:1001D8009F06D8F3BFC254D535D3EA81FB810E17E9
:1001E8001F075CF4B89AC098EE81FF812ED3C09A9D
:1001F800EC81FD812AD32CD3F0CF47D528960895DA
:100208003DD5F894E0E0EFBDEEBD25D3889A9098EF
:10021800E3E024D3E2B7EA3FE8F3E0E01FD3909AA3
:10022800E2E01CD3E2B7EC33E8F3E0E017D39098B0
:100238008898809BFECF8099FECF809BFECF0BD302
:1002480001D310D3BCF412D314D38099FECF14D3A6
:1002580058F0F901A0916001B091610180916201AB
:10026800909163010CD30ED316D31BD3809BFECF82
:10027800EFD2E7CFF0D2E6D2F5D284F4F7D2F9D2B2
:100288008099FECFF9D220F0F9010ED3F8D215D318
:1002980002D307D3809BFECFDBD2EECFDCD2D2D203
:1002A800E1D2BCF4E3D2E5D28099FECFE5D258F092
:1002B800F901A0916801B091690180916A0190915A
:1002C8006B01DDD203D3E7D2ECD2809BFECFC0D244
:1002D800E7CFC1D2B7D2C6D284F4C8D2CAD28099E5
:1002E800FECFCAD220F0F901FAD2C9D201D3D3D2B3
:1002F800D8D2809BFECFACD2EECFE0916801F091CE
:10030800690160916A0170916B01FBD2E8D2B9D39F
:10031800E0937001F093710160937201709373011F
:10032800E0916001F0916101609162017091630157
:10033800E8D2BAD2A6D3E0937401F0937501609322
:10034800760170937701E0E0F0E060E070E0D0D2F1
:10035800BDD2B3D297D2909ADAD2DED2789493D41F
:1003680024960895E0917801F0E0E130A0E0FA07E2
:1003780059F4AD9AA99AA898AA9AD2D23296D4D208
:1003880014F4E2E0DDD22CC0E230A0E0FA0771F408
:10039800AD9AD9D23297C8D214F4E3E0D1D2C0D200
:1003A8003396C2D214F0E1E0CBD21AC0E330A0E019
:1003B800FA07B1F4AD98C7D2A0917001B09171015C
:1003C8008091720190917301662777274DD414F4B8
:1003D800E2E0B6D2A5D23396A7D214F0E1E0B0D2CB
:1003E8000895C29AC39AC49AC59AE3E0E7BBAFD20C
:1003F800B29902C0E89401C0689423F8A8D2B399CE
:1004080002C0E89401C0689424F8A1D2B49902C04B
:10041800E89401C0689425F89AD2B59902C0E89486
:1004280001C0689426F893D20895DBDF23FC05C049
:1004380077D2319600D431978DD224FC05C070D282
:100448003197F9D3319686D2089591D27F936F93DD
:10045800FF93EF93BDD2AF91BF918F919F91C2D27D
:10046800E4E4F0E0CED20BC082D27F936F93FF9387
:10047800EF93AED2AF91BF918F919F91B3D2E881A4
:10048800E05DEA9377D162960895BED2BDD254D189
:10049800E6E4F0E0B6D2E0917001F091710160916C
:1004A800720170917301A5D3E3E0EA93ADD2CDDF79
:1004B800E7E0EA93A9D240D1EAE4F0E0A2D230D250
:1004C8006627772796D3ECE0EA939ED2BEDF9CD2CC
:1004D8009ED232D1E0E5F0E094D2E0917401F0913F
:1004E8007501609176017091770183D3E3E0EA9317
:1004F8008ED2ABDFE7E0EA938AD21ED1E4E5F0E0E2
:1005080080D2F6016627772774D3EDE0EA937FD28D
:10051800ABDF0895EFE7E8BBE3E0E7BBEFEFE5BB50
:10052800E4BBE2BBE0E0E1BB99D1F1D1F5D1E0E079
:10053800EBBDEABDE9BDE8BDE2BDB3D197D1E0E0CE
:10054800E3BDE5BFE4E0E9BFE0E0EAB9E0E8E8B927
:10055800E0E0E0BFE6B9EDB9E6BFE0E1EA933AD101
:10056800A0E0B0E06BD1A2E0B0E068D1A4E0B0E0D8
:1005780065D1EFE1E1BDEFE0E1BD78944BD24DD21A
:1005880074D216DE20FE05C0E89420F839DEEADED3
:10059800A89521FE62C049DF25FC2EC0E0E0E0936B
:1005A8007901E0937A01A0917901B0917A011897C5
:1005B8001CF536D2B49902C0E89401C0689425F8B5
:1005C8002FD225FE11C0EBE0F0E0E0937901F09323
:1005D8007A0129D220D3309719F425D227D203C023
:1005E80022D2E0E0F0E027D3A9E7B1E0ED91FD9158
:1005F8003196FE93EE93D7CF25FC1FC0ADD00AD21B
:1006080024D1EBE5F0E0FDD1AC9813D225FC0EC067
:10061800E6E4F0E01AD1B49902C0E89401C0689405
:1006280025F8E6E4F0E011D1A895F0CFF3D10DD18B
:10063800AC9A92D0BDDDEED108D127DFE89421F83D
:10064800F2D1E9D2309711F4C19A07C0C198AA240F
:10065800BB24E89422F8CC24DD24A0E022FCA1E00D
:10066800E1E02FD20E2EDFD1D6D2A0E0B0E02ED21C
:10067800E02181F1AC9AAB9AAD9AAA9AA89AA99A64
:100688006BD0D7D1ECE7F0E0BCD1AC9826FE0AC01D
:10069800C7D1B59902C0E89401C0689426F8C0D1C2
:1006A800A895F4CFECE2F1E0D0D026FC0AC0B8D18E
:1006B800B59902C0E89401C0689426F8B1D1A8950C
:1006C800F4CFAED1B6D1E89422F8ECE2F1E0BDD097
:1006D800AC9A6EDD57CFFFCFE881E07111F0949AA4
:1006E80001C09498E881E07211F0959A01C095983C
:1006F800E881E07411F0969A01C09698E881E07854
:1007080011F0979A01C097988BE08A95F1F7939A20
:100718008BE18A95F1F793988BE18A95F1F783C07D
:10072800E88190D1E881E295E883E8818BD188EC73
:1007380090E00197F1F777C0E881F0E0E158FE4FCB
:10074800E081A981EA0F80D1E981E0938301E88102
:10075800E093840122960895E2E076D177D1ECE027
:1007680073D155D1DDDF72D1E0E0E0938401E093ED
:1007780083010895A881AA3031F0E0918501A09104
:100788008301AE1760F040D1E0918401EF5FE09300
:100798008401EA93D1DFA881AA3009F444C0E0912A
:1007A8008301EF5FE0938301919AE8814DD191989D
:1007B8003AC01A93E981FA813196E983FA8331972D
:1007C800E4911E2FE03019F01A93D4DFF3CF18818B
:1007D800239608958C9A8D9A8E9A8F9A8B9A899AD5
:1007E8008A9A939891989298E881E0938501E058C5
:1007F800E0938101E881E054E0938201E4E1F0E0D4
:100808000CD133D1E0E31ED125D124D129D1E0E2A6
:1008180019D126D1E8E218D1E4E016D1E5E814D1DF
:10082800E6E012D199DF21960895EFEFEDBDE5E0FE
:10083800ECBD0895A6E0B0E0EED10895E0E0F0E068
:10084800FAD1089500E010E00895FA93EA93BBCC3A
:100858000F5F1F4F089520E830E00895E3BFE0E000
:10086800E2BF08950830E0E01E070895E0E0E4BD27
:100878000895E2E0E5BD0895E4B5E13608951CD198
:1008880000D10895E0936001F093610160936201E3
:10089800709363010895D901E2E0F0E055D19F011A
:1008A800E5CFE0E0E5BD0895A0916401B091650150
:1008B80080916601909167010895E0936401F09337
:1008C800650160936601709367010895E09368017C
:1008D800F093690160936A0170936B010895A09188
:1008E8006C01B0916D0180916E0190916F01089536
:1008F800E0936C01F0936D0160936E0170936F014A
:100908000895A0E0B1E080E090E006D10895E0E02D
:10091800EFBDE3E0EEBD89CFE0E0E7BDE6BD0895B9
:10092800A8E0B0E078D10895A0917001B09171016C
:100938008091720190917301662777279AD1089563
:10094800E09378010895A998A898AA98E9CFE2E0D9
:10095800F0E07BCFEAE0F0E0FA93EA93E8E2F0E037
:10096800FA93EA93E1E0F0E0FA93EA9334CC2C9717
:10097800AE85BF8588899989E4E6F0E060E070E09B
:100988000DD1E887F9876A877B87A4E6B0E080E025
:1009980090E0C2D0AE85BF85888999897CD0EAE08D
:1009A800F0E060E070E0FAD0EC83FD836E837F8333
:1009B800E885F9856A857B85A4E6B0E080E090E06B
:1009C800ABD0AE85BF858889998918D15FD0089545
:1009D800EC81FD816E817F81AAE0B0E080E090E04B
:1009E8009BD0089558D000D1ED85EA93ED85EA9320
:1009F800A3DEE885E05DEA93BDDEEC81E05DEA9385
:100A0800B9CEFA93EA93D5CEE0E0EA930895E1E00F
:100A1800EA930895EAE0F0E00895FA93EA930895D6
:100A2800E2E3F0E012CFAAE0B0E00895E1E0F0E000
:100A38000895E4E1F0E0F1DFEEE1F0E0EEDFF6DF6B
:100A4800ECDFC9CBEA9348CEEA936ACEE3E0F0E064
:100A5800E4DF0BC080E991E00197F1F7E0E3F2CF22
:100A680080E991E00197F1F70895E991F9913096BD
:100A780039F080EA9FE00197F1F7A8953197C9F717
:100A88000895EA0FFB1F681F791F0895EA1BFB0BE7
:100A9800680B790B0895AE1BBF0B860B970B089557
:100AA800F195E195F0400895F09560957095E19580
:100AB800FF4F6F4F7F4F08956F2F660F660B762F8E
:100AC8000895EA17E1E009F0EE270895EA17FB0711
:100AD800E1E009F0EE2708957A9F702D6B9F700D65
:100AE800F89F700DE99F700D6A9F602D710DFB9F37
:100AF800600D711DE89F600D711D8827FA9FF02D0C
:100B0800610D781FEB9FF00D611D781FEA9FE02DA6
:100B1800F10D681F781F089554D0DEDF0EF4C4DF8E
:100B280008950024112490E1AA0FBB1F001C111C7A
:100B38000E1A1F0A18F40E0E1F1E01C0A1609A9506
:100B480099F7FD01D00108952ED0EBDF0EF4A8DF50
:100B580008953F934F935F9300241124442755270A
:100B680030E2AA0FBB1F881F991F001C111C441FCD
:100B7800551F0E1A1F0A460B570B28F40E0E1F1E80
:100B8800461F571F01C0A1603A9559F7FD01BC01E6
:100B9800D001CA015F914F913F91089512D0D9DFDA
:100BA8000EF482DF0895E894F7FF02C079DF6894B5
:100BB800B7FF06C0A095B095119600F8039400FA07
:100BC8000895E89477FF02C06FDF689497FF0BC021
:100BD8000024A095B095809590951196801D901D44
:100BE80000F8039400FA0895A883B9838A839B8345
:100BF80008957A936A93FA93EA930895182E862FA4
:100C0800612D192E972F712D1B2EBF2FF12D1A2E06
:100C1800AE2FE12D0895119602D0FE2F1197E1997C
:100C2800FECFFF93FFB7F894AEBBBFBBE09AEDB31E
:100C3800FFBFFF91089507D01196EF93EF2F03D0D0
:100C4800EF9111970895E19B02C0A895FCCF9FB73B
:100C5800F894AEBBBFBBE09A8DB3E81719F0EDBBB3
:100C6800E29AE19A9FBF0895EA17FB076807790798
:100C78000895AE17BF078607970708953A932A93F2
:100C88001A930A9308953B812A811981088108954E
:00000001FF
