:0200000078C0C6
:10000200FECFFDCFFCCFFBCFFACFF9CFF8CF9FC009
:10001200F6CFF5CFF4CFF3CFF2CFF1CFF0CFEFCFD2
:10002200EECFEDCF1027E80364000A0001000010B4
:10003200000110000100F0030100020000000000B6
:10004200000000000000543A2025692E252D752558
:100052000020203E202025692E252D752500483AB6
:100062002025692E252D7525003E3E3E3E4E51200F
:1000720046616972793C3C3C3C0044616F20547299
:10008200756E672020202020202020202020202084
:10009200202042616E67205461790044616F2054D0
:1000A20072756E6720202020202020202020202012
:1000B200202020547520446F6E67200001002D4ED1
:1000C200414E00494E46000080C002000200380046
:1000D200010078013A00010079013C000A000400A5
:1000E2003E0001009A01BE0002009E01CA0000000B
:1000F200F894EE27ECBBF1E0FBBFEBBFE5BFF8E104
:10010200F1BDE1BD8DE0A2E0BB27ED938A95E9F751
:1001120080E094E0A0E6ED930197E9F7ECECF0E0E3
:1001220085919591009761F0A591B59105901590F3
:10013200BF01F00105900D920197E1F7FB01F0CFAD
:10014200EFE5EDBFE4E0EEBFC0E6D1E060C28A9326
:100152009A93AA93BA93EA93FA93EFB7EA932ED5B6
:10016200F20131962F01F30131963F01F4013196EC
:100172004F01F60131966F01ECEDF5E04E165F0688
:1001820020F0689420F844245524E4E6F0E06E164A
:100192007F0620F0689421F866247724E0E3F5E7EF
:1001A200CE16DF0698F0A6E0B0E00DD580D73197E5
:1001B200A6E0B0E06CD7E835A2E0FA0728F0689430
:1001C20022F8A6E0B0E002D5CC24DD24E991EFBF0D
:1001D200F991E991B991A99199918991189544243C
:1001E200552466247724AA24BB24CC24DD24E89455
:1001F20020F821F822F823F8089588249924E88128
:10020200F9818E169F06D8F34DC478D7E3D4E5D48E
:1002120034F4E8D4F2DFEDD4F0DFF1D4F8CF0AC041
:100222006DD7D8D4DAD434F4DDD45AD6E2D458D641
:10023200E6D4F8CF6AD7289608955ED7F894E0E01E
:10024200EFBDEEBDDFD4889A9098E3E0DED4E2B74A
:10025200EA3FE8F3E0E0D9D4909AE2E0D6D4E2B7FC
:10026200EC33E8F3E0E0D1D490988898809BFECFFD
:100272008099FECF809BFECFC5D4ACD4CAD4BCF447
:10028200CCD4CED48099FECFCED458F0F901A0912F
:100292006001B09161018091620190916301C6D4C5
:1002A200C8D4D0D4D5D4809BFECFA9D4E7CFAAD4CA
:1002B20091D4AFD484F4B1D4B3D48099FECFB3D463
:1002C20020F0F901C8D4B2D4CFD4BCD4C1D4809B1D
:1002D200FECF95D4EECF96D47DD49BD4BCF49DD4DE
:1002E2009FD48099FECF9FD458F0F901A091680164
:1002F200B091690180916A0190916B0197D4BDD44C
:10030200A1D4A6D4809BFECF7AD4E7CF7BD462D48B
:1003120080D484F482D484D48099FECF84D420F013
:10032200F901B4D483D4BBD48DD492D4809BFECFB4
:1003320066D4EECFE0916801F091690160916A01A3
:1003420070916B01B5D4A2D4DBD5E0937001F09328
:1003520071016093720170937301E0916001F091F9
:1003620061016091620170916301A2D474D4C8D515
:10037200E0937401F09375016093760170937701B5
:10038200E0E0F0E060E070E08AD477D46DD451D43C
:10039200909A94D498D47894B6D624960895E091FD
:1003A200780195D459F4AD9AA99AA898AA9A94D4A6
:1003B200329696D414F4E2E09FD42AC0E230A0E050
:1003C200FA0789F4AD9AA998A898AA9885D4319782
:1003D20087D414F4E3E090D47FD4359681D414F01A
:1003E200E1E08AD415C0E330A0E0FA0789F4AD98C1
:1003F200A998A898AA9883D485D48DD471D614F4D8
:10040200E2E07AD469D435966BD414F0E1E074D486
:10041200E09179015CD451F4AB9880D47E9682D479
:1004220064D61CF0E2E0E09379010DC0E230A0E076
:10043200FA0749F4AB9A72D47E9774D451D61CF061
:10044200E1E0E09379010895EFEFE8BBEEE073D4C9
:10045200C198C29A76D4B59902C0E89401C0689452
:1004620024F875D4B49902C0E89401C0689426F8BF
:100472006ED4C19AC29865D4B59902C0E89401C0FD
:10048200689425F864D4B49902C0E89401C06894D1
:1004920027F85DD4C19AC29AC39859D4B59902C0BB
:1004A200E89401C0689430F852D4B49902C0E89438
:1004B20001C0689431F84BD4C19AC29AC39A36C02B
:1004C200EFEFE8BBE0E337D4C598C49A40D4B199C2
:1004D20002C0E89401C0689424F839D4B29902C0E9
:1004E200E89401C0689425F832D4B39902C0E89424
:1004F20001C0689430F82BD4C59AC49828D4B19915
:1005020002C0E89401C0689426F821D4B29902C0CE
:10051200E89401C0689427F81AD4B39902C0E89409
:1005220001C0689431F813D4C59AC49AE2E0F0E0AD
:1005320013D463DE089532FC23C086DF24FC02C09C
:10054200DED30DD425FC02C0C7D315D426FC02C0CD
:10055200E5D31ED427FC02C0E1D328D4A0E030FCAE
:10056200A1E0E0E0E3D40E2EA0E031FCA1E0E0E067
:10057200DDD4E02111F0E89401C0689432F813C090
:100582009FDF24FC02C0BBD3EAD325FC02C0A4D364
:10059200F2D326FC02C0C2D3FBD327FC02C0BED3D7
:1005A20005D4E89432F808950FD4E8E4F0E0D4D307
:1005B2000ED423D567D50BD410D41AD4A3D204D425
:1005C200E3E5F0E0C9D388D317D4DAD419D484D3BD
:1005D20013D419D41CD40CD495D2F6D3E0E6F0E0AF
:1005E200BBD31BD40AD54ED518D4F7D323D48AD281
:1005F200EBD3E3E5F0E0B0D391D3FED3C1D400D482
:100602008DD3FAD300D403D415D47CD20895EFEF5E
:10061200E8BBE0E3E7BBEFEFE5BBE4BBE2BBE0E056
:10062200E1BBF3D24BD34FD3E0E0EBBDEABDE9BD72
:10063200E8BDE2BD0DD3F1D2E0E0E3BDE5BFE4E009
:10064200E9BFE0E0EAB9E0E8E8B9E0E0E0BFE6B936
:10065200EDB9E6BFE0E1EA9373D2A0E0B0E0B6D232
:10066200A2E0B0E0B3D2A4E0B0E0B0D2EFE1E1BDED
:10067200EFE0E1BD7894EBE6F0E06ED350D2DED34A
:10068200E0E5F0E069D3E2E0F0E066D3C9DDA7DDA2
:1006920020FE05C0E89420F8D0DD81DEA89521FE79
:1006A20020C049DF30FC17C0AC988ED3ECE7F0E0F5
:1006B20053D380E086D12496E0E0EA93EA93E4D132
:1006C20083D320D2E2E3F0E047D397DD34DF662420
:1006D2007724A895E7CFAC9AE7D139D365DFE894C0
:1006E20021F822FE28C0AC9AAB9AAD9AAA9AA89A8F
:1006F200A99ADAD1A3D3A5D3A7D3EDE9F0E02CD3FD
:100702000ED2A2DE31FE05C0AC989EDE9AD3E8D3AB
:10071200F9CFE4E6F0E020D3E3D331FC05C0AC9896
:1007220093DE8FD3DDD3F9CF89D38BD38DD3AC9A1C
:1007320056DDE89422F8ACCFFFCFE0D489D31296ED
:1007420099D43097F1F084D386D38F01309761F03A
:100752000230E0E01E07A0F0F80131978F01AA8174
:10076200BB811496ED93FC9373D3129677D3319792
:10077200AC81A0836DD37ED4FF2312F069D36ED3F4
:1007820005C066D3EFEFFFEFED93FC93BED4259641
:1007920008952697AFD410E0AC85BD85E0E0F0E087
:1007A200ED93FC93EA89FB893196EA8BFB8B3197B7
:1007B200E4912E2FE03009F4FEC0E12FE03031F455
:1007C200253211F411E001C04FD3F4C0E130A1F49D
:1007D200253211F449D3EDC012E040E000E02D32A1
:1007E20011F401E0E7C02B3211F44BE2E3C02032F6
:1007F20011F440E2DFC002C0E23039F450E013E00D
:10080200203311F40068D6C003C0E33009F0D2C02F
:10081200203310F02A3308F007C0AAE05A9F502D67
:10082200E22FE0535E0FC6C0E22FE33639F424D341
:1008320026D322D3A481AA9326D3BBC0E33731F4B3
:1008420029D32AD32CD3A5D11E2F08C0E03751F4C7
:1008520021D322D324D3A7D11E2F086002600F77A1
:1008620030E02EC0E43611F0E93611F4046002C023
:10087200E53729F4E6E2F0E015D315E00BC0E835E0
:1008820011F4086003C0E83709F093C0E0E3F0E038
:1008920009D314E002FF11C0FDD2FED206D3AB850C
:1008A200AA232AF4EA85FB8530D3FFD24DE24030F9
:1008B20011F01F5F01C00B7F03C0ECD2EDD2F5D265
:1008C20000FD10C0151770F407FF08C002FF04C036
:1008D2000B7F242F115001C020E301C020E2C4D2BB
:1008E2005150F0CF312F01FF15C0303091F003FF8E
:1008F20005C0EE81FF812591D5D205C0AE81BF81B1
:100902002D91AE83BF83B0D2503009F05150315097
:10091200ECCF46C020E3EE81FF81B0D3E887F987B0
:10092200EE81FF813296BED2E885F985AA85BB8524
:10093200AE17BF0748F02F5FA885B985EA85FB850A
:10094200EA1BFB0BB2D2F0CF2A3328F003FF02C01E
:10095200295F01C0295D04FD19C0213320F4A88557
:10096200B985119709F409C0531710F000FF01C0AF
:1009720011C020E207FF0AC020E3006102FF06C0A7
:100982000B7F4A9380D2503009F051506DD25030D3
:1009920009F051503150A885B985129708F0BACFA5
:1009A20000FF07C0503029F05150E0E2EA936BD2C9
:1009B200F9CF10E0F7CEAC85BD855CD3A2D36496A7
:1009C2000895FF92F82E269797D372D2309719F492
:1009D200EFEFFFEF1DC0DE0116968ED28D0168D2B9
:1009E20061D2E0E0E887E987DE011A9685D242D338
:1009F200B3D11A930A93EEE9F3E0AED1FE013A962F
:100A0200ABD1C7DE9F01AE81BF81E0E0EC93F9017B
:100A12007AD32A96FF900895E991F99130971AF4C2
:100A2200E095F09531960895E881E07111F0949A7D
:100A320001C09498E881E07211F0959A01C09598EE
:100A4200E881E07411F0969A01C09698E881E07806
:100A520011F0979A01C097988BE08A95F1F7939AD3
:100A62008BE18A95F1F793988BE18A95F1F78FC024
:100A7200E88123D2E881E295E883E8811ED288ECFE
:100A820090E00197F1F783C0E881F0E0E256FE4F73
:100A9200E081A981EA0F13D2E981E093A201E88102
:100AA200E093A30122960895E2E009D20AD2ECE093
:100AB20006D2E1E004D205D2E0E0E093A301E093A4
:100AC200A2010895A881AA3031F0E091A401A09179
:100AD200A201AE1768F0E0E0EA93E091A301EF5FB4
:100AE200E093A301EA93D0DFA881AA3009F44FC0B2
:100AF200E091A201EF5FE093A201919AE881DFD138
:100B0200919845C01A93A981BA81ED91A983BA83BC
:100B12001E2FE03019F01A93D5DFF5CF0EC01A93CD
:100B2200E981FA813196E983FA833197E4911E2FA4
:100B3200E03019F01A93C6DFF3CF18812396089597
:100B42008C9A8D9A8E9A8F9A8B9A899A8A9A93986E
:100B520091989298E881E093A401E058E093A00173
:100B6200E881E054E093A10169D1BAD1E0E3A5D1D3
:100B7200ACD1ABD1B0D1E0E2A0D1ADD1E8E29FD10E
:100B8200E4E09DD1E5E89BD1E6E099D18DDF2196A5
:100B92000895A991B991EE27FF276D91662311F06F
:100BA2003196FBCF0895AA27BB27E991F9910590C9
:100BB200002011F01196FBCFFD010895EFEFEDBD7E
:100BC200E5E0ECBD089563D231960895E0E0F0E0EF
:100BD2006ED2089500E010E00895EA81FB810E17BD
:100BE2001F070895B89AC098EE81FF81FA93EA939D
:100BF2000895C09AEC81FD81FA93EA9308950F5FFC
:100C02001F4F089520E830E00895E3BFE0E0E2BF1F
:100C120008950830E0E01E070895E0E0E4BD08957D
:100C2200E2E0E5BD0895E4B5E13608957AD168D1F0
:100C32000895E0936001F093610160936201709303
:100C420063010895D901E2E0F0E0ADD19F01E5CF63
:100C5200E0E0E5BD0895A0916401B0916501809145
:100C62006601909167010895E0936401F093650134
:100C720060936601709367010895E0936801F093B1
:100C8200690160936A0170936B010895A0916C01F0
:100C9200B0916D0180916E0190916F010895E09382
:100CA2006C01F0936D0160936E0170936F01089572
:100CB200A0E0B1E080E090E05ED10895E0E0EFBD19
:100CC200E3E0EEBD7BCFE0E0E7BDE6BD0895F0E0F6
:100CD200E130A0E0FA070895A8E0B0E0D8D1089585
:100CE200A0917001B0917101809172019091730194
:100CF20066277727FAD10895E09378010895A8E04E
:100D0200B0E061CFA0917001B09171018091720148
:100D1200909173010895662777270895AAE0B0E0BD
:100D2200B6D10895A0917401B091750180917601B8
:100D320090917701F0CFE7BBE2E0F0E0FA93EA931B
:100D42005CCAC39AE2E0F0E0FA93EA9356CAE2E0A0
:100D5200F0E0FA93EA9351CAFA93EA930895A7D17D
:100D62003197EAE0F0E0F8DFE8E2F0E0F5DFE1E019
:100D7200F0E0F2DF4ACA31979AD13196EAE0F0E028
:100D8200EBDFE8E2F0E0E8DFE1E0F0E0E5DF3DCADA
:100D92003A96AAE0B0E08BD1EAE0F0E0DDDFE8E2EB
:100DA200F0E0DADFE1E0F0E0D7DF2FCA3A97AAE01D
:100DB200B0E07DD1EAE0F0E0CFDFE8E2F0E0CCDFC6
:100DC200E1E0F0E0C9DF21CAEAE7F1E0C5CF9ADF4E
:100DD200EAE0F0E060E070E0089517D1BDDF1CDECC
:100DE2009ADF50D188E0EDDD2C96E0E0EA93089599
:100DF200E0E0EA9349DEE8CFDF01EAE0F0E00895BF
:100E02008ADF40D10895FED0A7DF06DEF9CF88E061
:100E1200D8DD2C96E7E0EA930895A0917401B09191
:100E220075018091760190917701EAE0F0E060E04F
:100E320070E00895E1E0EA9327DEC6CFE4E1F0E056
:100E42008BCFEEE1F0E088CFE1E0F0E085DFDDC9B5
:100E5200AA81BB81089514960DD10895ED91FD915B
:100E62003196FE93EE9308952A93ED85FE8574DF05
:100E7200E989FA8909950895E889F98908953497E5
:100E8200E88BF98B0895ED85FE8566DFE989FA899D
:100E920009950895F1DFF3CFA889B989DCCFEE83F4
:100EA200FF835ACFEE83FF830895EA87FB87089575
:100EB200DE011C9621D0DED00895EA93B5CDEA93E7
:100EC200D7CDE3E0F0E048DF0BC080E991E0019785
:100ED200F1F7E0E3F2CF80E991E00197F1F70895AD
:100EE200E991F991309639F080EA9FE00197F1F7A4
:100EF200A8953197C9F708950024AF0DB01D089544
:100F0200EA0FFB1F681F791F0895F195E195F040E4
:100F12000895F09560957095E195FF4F6F4F7F4F63
:100F220008956F2F660F660B762F0895EA17E1E09A
:100F320009F0EE2708957A9F702D6B9F700DF89F30
:100F4200700DE99F700D6A9F602D710DFB9F600D02
:100F5200711DE89F600D711D8827FA9FF02D610DAC
:100F6200781FEB9FF00D611D781FEA9FE02DF10DB8
:100F7200681F781F08956BD0DEDF0EF4CADF089574
:100F82000024112490E1AA0FBB1F001C111C0E1A91
:100F92001F0A18F40E0E1F1E01C0A1609A9599F740
:100FA200FD01D001089545D0EBDF0EF4AEDF0895C8
:100FB2003F934F935F93002411244427552730E237
:100FC200AA0FBB1F881F991F001C111C441F551F0D
:100FD2000E1A1F0A460B570B28F40E0E1F1E461F31
:100FE200571F01C0A1603A9559F7FD01BC01D0011C
:100FF200CA015F914F913F91089529D0D9DF0EF434
:1010020088DF0895BDDFFD010895E89497FF09C0C8
:10101200A095B09580959095AF5FBF4F8F4F9F4F32
:10102200689477FD76DFC4DFFD01BC010EF471DF49
:101032000895E894F7FF02C068DF6894B7FF06C01E
:10104200A095B095119600F8039400FA0895E894DB
:1010520077FF02C05EDF689497FF0BC00024A09563
:10106200B095809590951196801D901D00F803947F
:1010720000FA0895ED91FC91119708950590F4916D
:10108200E02D08957A936A93FA93EA93089511965C
:1010920002D0FE2F1197E199FECFFF93FFB7F8948C
:1010A200AEBBBFBBE09AEDB3FFBFFF91089507D07F
:1010B2001196EF93EF2F03D0EF9111970895E19BD3
:1010C20002C0A895FCCF9FB7F894AEBBBFBBE09A15
:1010D2008DB3E81719F0EDBBE29AE19A9FBF08952C
:1010E200EA17FB07680779070895AE17BF07860757
:1010F200970708955A934A933A932A931A930A9315
:1011020008955D814C813B812A811981088108956E
:00000001FF
