:0E00000036C0FECFFDCFFCCFFBCFFACF22C122
:10000E00F8CFF7CFF6CFF5CFF4CFF3CFF2CFF1CFC6
:10001E00F0CFEFCFEECFEDCF0000000000002E00AE
:10002E0053746172742053797374656D2E2E2E2E57
:10003E002E003E20003E00460061006900720079ED
:10004E00002D0045006C0062000080C0010002001F
:10005E00260004000400280002008401580000005D
:10006E00F894EE27ECBBF1E0FBBFEBBFE5BFF8E188
:10007E00F1BDE1BD8DE0A2E0BB27ED938A95E9F7D6
:10008E0080E094E0A0E6ED930197E9F7EAE5F0E071
:10009E0085919591009761F0A591B5910590159078
:1000AE00BF01F00105900D920197E1F7FB01F0CF32
:1000BE00EFE5EDBFE4E0EEBFC0E6D1E059C1C5D239
:1000CE007F936F93FF93EF93F1D2AF91BF918F9187
:1000DE009F91F6D2ECE2F0E002D37DD20BC0B5D206
:1000EE007F936F93FF93EF93E1D2AF91BF918F9177
:1000FE009F91E6D2E881E05DEA935BD26296089525
:10010E00E0E0F0E060E070E0EDD2F5D2FDD205D394
:10011E000DD3EFEFE1BB909880EA9FE00197F1F7E6
:10012E00909A80EA8A95F1F79098EEEFE1BB809B6A
:10013E00FECF8099FECF809BFECFF8D204D30DD395
:10014E00BCF41BD31DD38099FECF1DD358F01ED304
:10015E00A0916401B0916501809166019091670153
:10016E00E5D3DBD21CD331D3809BFECF31D3E7CF87
:10017E00DDD2E9D2F2D27CF400D302D38099FECF45
:10018E0002D318F003D32DD3BFD209D31ED3809B35
:10019E00FECF1ED3EFCFCAD2D6D2DFD2BCF4EDD271
:1001AE00EFD28099FECFEFD258F0F0D2A0916C0131
:1001BE00B0916D0180916E0190916F01B7D39BD27A
:1001CE00EED203D3809BFECF03D3E7CFAFD2BBD209
:1001DE00C4D27CF4D2D2D4D28099FECFD4D218F02D
:1001EE00D5D209D37FD2DBD2F0D2809BFECFF0D214
:1001FE00EFCF9CD2E0916C01F0916D0160916E0198
:10020E0070916F0102D3F7D2E0937801F0937901E8
:10021E0060937A0170937B01E0916401F091650126
:10022E006091660170916701F0D2DBD2E0937C01A0
:10023E00F0937D0160937E0170937F01EFEFE1BB40
:10024E00909A08950A921A92FA926A937A938A93DE
:10025E009A93AA93BA93EA93FA93EFB7EA93F201B9
:10026E0031962F01A0E8B1E0EFD3EF5FFF4F6F4F54
:10027E007F4FEFD3A0918001B091810180918201D7
:10028E0090918301A038E1E5BE07E1E08E07E0E042
:10029E009E0719F4AAE1B0E0BED2AAE1B0E0F5D310
:1002AE00E83EA3E0FA0729F4F89473D1EFEFE5BB2B
:1002BE00F4CFEDE1FCE1E415F50521F4AC98F30182
:1002CE0031963F01E0E2FCE1E415F50519F4442412
:1002DE005524AC9A20FC09C0A0E0AD99A1E0E1E064
:1002EE00EA2711F4AD9801C0AD9A0ADFE991EFBF8C
:1002FE00F991E991B991A991999189917991699120
:10030E00F990199009901895B09910C0999909C053
:10031E0087D2E2E7F1E0C9D386D2E8E5F2E0C5D3B1
:10032E00F5CF7ED278D282D284D2EECF989907C002
:10033E007DD23197BAD3319679D27BD2F7CFB1999C
:10034E000DC0989906C0AAE1B0E0E0E0F0E0ADD3B0
:10035E00F8CF69D260D278D27AD2F1CF999907C00C
:10036E0073D23197A2D331966FD271D2F7CF08954F
:10037E00EFEFE8BBE0E0E7BBEFEFE5BBECEFE4BB94
:10038E00E0E0E2BBE1BB21D2F8D16CD2E0E0E2BD0D
:10039E00E5BDE4BDE3BDE5BFE0E1E9BFE0E0EAB9FC
:1003AE00E0E8E8B9E0E0E0BFE6B9EDB9E6BFE0E1CC
:1003BE00EA9322D1EEE2F0E066D267D269D2DDD0C6
:1003CE00E0E4F0E060D2E4EFF1E065D2E3E4F0E0E7
:1003DE005AD263D2E5E4F0E056D25FD2E7E4F0E021
:1003EE0052D25BD2E9E4F0E04ED257D2EBE4F0E029
:1003FE004AD253D2EDE4F0E046D24FD2EFE4F0E031
:10040E0042D24BD2E1E5F0E03ED247D2E3E5F0E056
:10041E003AD243D2E7E4F0E036D23FD2E5E5F0E05F
:10042E0032D23BD2E0E4F0E02ED237D2E3E4F0E079
:10043E002AD2AD98ECE2F1E02ED2AD9AE4E1F5E0ED
:10044E002AD2A7D00FD278945FDF1FD21ED295D0BA
:10045E00E0917801F091790160917A0170917B01C0
:10046E0002D316D212D22BDEE1D11AD20ED227DE51
:10047E000CD20ED282D0E0917C01F0917D01609180
:10048E007E0170917F01EFD203D202D218DEDCD151
:10049E0007D2FED114DEF30108D2E5D2EDE0EA93E5
:1004AE00F4D11DDEC3D1359702D21DD30CF4AA9818
:1004BE00BDD13596FCD112D30CF4AA9AC5D174973E
:1004CE00FFD111D30CF4AB98BFD17496F9D106D3EA
:1004DE000CF4AB9AFED1EEE5F1E060E070E042D2B2
:1004EE000E2E00D2E4EFF1E060E070E03BD20E2A77
:1004FE00F0D1E1E8F1E060E070E03CD20E2AF2D1FA
:10050E00E0E2F3E060E070E035D2E02911F0E8942B
:10051E0001C0689420F898CFFFCFE881E07111F008
:10052E00949A01C09498E881E07211F0939A01C0F8
:10053E009398E881E07411F0929A01C09298E88144
:10054E00E07811F0919A01C091988BE08A95F1F7BD
:10055E00959A8BE18A95F1F795988BE18A95F1F74B
:10056E0072C0E881C8D1E881E295E883E881C3D101
:10057E0088EC90E00197F1F766C0E881F0E0EC5767
:10058E00FE4FE081A981EA0FB8D19980888022962A
:10059E000895E2E0B2D1E3E0F0E07DD1ECE0ADD140
:1005AE0077D1DFDFE3E0F0E076D1E0E08E2E9E2E15
:1005BE000895A881AA3011F09B1438F066D1839467
:1005CE008A92DBDFA881AA30F1F19394979AE881A1
:1005DE0094D1979838C01A93E981FA813196E983BC
:1005EE00FA833197E4911E2FE03019F01A93E1DF70
:1005FE00F3CF1881239608958C9A8B9A8A9A899AAA
:10060E008D9A8F9A8E9A959897989698B880E88139
:10061E00E058E0938601E881E054E0938701E4E13D
:10062E00F0E039D1E0E367D16AD169D16ED1E0E271
:10063E0062D16BD1E8E261D1E4E05FD1E5E85DD152
:10064E00E6E05BD1A6DF219608952C97AE85BF8597
:10065E0088899989E4E6F0E060E070E0DDD1E88712
:10066E00F9876A877B87A4E6B0E080E090E0AAD1A4
:10067E00AE85BF858889998963D1EAE0F0E060E0B4
:10068E0070E0CAD1EC83FD836E837F83E885F985A4
:10069E006A857B85A4E6B0E080E090E093D1AE85DC
:1006AE00BF8588899989E4D146D10895EC81FD8171
:1006BE006E817F81AAE0B0E080E090E083D1089562
:1006CE003FD1CCD1ED85EA93ED85EA9356DFE885EF
:1006DE00E05DEA936EDFEC81E05DEA936ACFFA9318
:1006EE00EA930895E0937001F093710160937201A3
:1006FE00709373010895E0936C01F0936D01609314
:10070E006E0170936F010895E0936801F093690193
:10071E0060936A0170936B010895E0936401F09306
:10072E00650160936601709367010895E0E8F0E05B
:10073E0060E070E0E0937401F093750160937601D0
:10074E00709377010895E0E0E0936001E09361011A
:10075E00E0936201E09363010895A0916001B0916E
:10076E0061018091620190916301A830E0E0BE07C3
:10077E00E0E08E07E0E09E070895E0E0E2BF089516
:10078E00E2E0E3BF0895E2B7E1360895E091740127
:10079E00F091750160917601709177010895A091A5
:1007AE007401B09175018091760190917701E2E02C
:1007BE00F0E060E070E030D1E0937401F0937501E9
:1007CE006093760170937701D8CFE0E0E3BF089590
:1007DE00A0E6B1E039D1EF5FFF4F6F4F7F4F39D1B8
:1007EE000895A0916801B091690180916A0190917C
:1007FE006B019CD00895A0917001B0917101809110
:10080E0072019091730192D00895A0E0B1E080E062
:10081E0090E0D8D0089539D1319647D131970895C7
:10082E00A0E1B0E00895A5E1B0E00895F9DF2DD183
:10083E00089593D018D1E7E0EA93E0E0EA933FDC25
:10084E00ECE2F1E04CDF66C0EEDF1FD1089585D0FB
:10085E000AD1E7E0EA93E1E0EA9331DCECE2F1E081
:10086E003EDF58C0E0E0EFBDEDE0EEBDE0E0EDBDF7
:10087E00ECBDE7BDE6BDEDE3EBBDE9E0EABDE0E0D2
:10088E00E9BDE8BD08952BDFA6CEE0E0EA9308951A
:10089E00E1E0EA93089523DF3DC0E8ECF0E0FBCF02
:1008AE005CD0E1D0E7E0EA93089557D00895A09187
:1008BE007801B091790180917A0190917B01F5CF09
:1008CE00A0917C01B0917D0180917E0190917F017C
:1008DE00ECCFA0917801B091790180917A0190913D
:1008EE007B010895A0917C01B0917D0180917E01E4
:1008FE0090917F010895EA9310CEEA9332CE80E96B
:10090E0091E00197F1F7E0E3F6CF80E991E00197EE
:10091E00F1F70895E991F991309639F080EA9FE068
:10092E000197F1F7A8953197C9F70895EA0FFB1FC4
:10093E00681F791F0895EA1BFB0B680B790B08954E
:10094E00AE1BBF0B860B970B0895F09560957095B7
:10095E00E195FF4F6F4F7F4F08956F2F660F660B18
:10096E00762F0895AE17BF0786079707E1E00CF0C4
:10097E00EE270895EA17FB0768077907E1E00CF008
:10098E00EE2708957A9F702D6B9F700DF89F700D56
:10099E00E99F700D6A9F602D710DFB9F600D711D9B
:1009AE00E89F600D711D8827FA9FF02D610D781F4D
:1009BE00EB9FF00D611D781FEA9FE02DF10D681F72
:1009CE00781F08952ED0DEDF0EF4BFDF08953F931B
:1009DE004F935F93002411244427552730E2AA0F2A
:1009EE00BB1F881F991F001C111C441F551F0E1A78
:1009FE001F0A460B570B28F40E0E1F1E461F571FBD
:100A0E0001C0A1603A9559F7FD01BC01D001CA01A0
:100A1E005F914F913F91089504D0D9DF0EF495DF89
:100A2E000895E89477FF02C090DF689497FF0BC09B
:100A3E000024A095B095809590951196801D901DDF
:100A4E0000F8039400FA0895ED91FD916D917D915A
:100A5E0008957E936E93FE93EE930895A883B983C3
:100A6E008A839B8308957A936A93FA93EA930895FF
:100A7E00182E862F612D192E972F712D1B2EBF2FFD
:100A8E00F12D1A2EAE2FE12D0895119602D0FE2FC4
:100A9E001197E199FECFFF93FFB7F894AEBBBFBBA2
:100AAE00E09AEDB3FFBFFF91089507D01196EF9333
:100ABE00EF2F03D0EF9111970895E19B02C0A895F7
:100ACE00FCCF9FB7F894AEBBBFBBE09A8DB3E817CF
:100ADE0019F0EDBBE29AE19A9FBF0895EA17FB0762
:100AEE00680779070895AE17BF0786079707089519
:00000001FF
