:0600000065C0FECFFDCF3C
:10000600FCCFFBCFFACFF9CFF8CF8CC0F6CFF5CF28
:10001600F4CFF3CFF2CFF1CFF0CFEFCFEECFEDCFDE
:100026001027E80364000A00010000100001100018
:1000360001007800010000000000000000002E0012
:10004600543A200020203E202000483A200020205C
:10005600202020200044616F205472756E67202096
:100066002020202020202020202020202042616ED9
:1000760067205461790044616F205472756E672061
:1000860020202020202020202020202020205475E1
:1000960020446F6E6720000001002D4E414E00493E
:1000A6004E46000080C001000200380001007801C1
:1000B6003A00080004003C0001007B019E0002009B
:1000C6007F01AA000000F894EE27ECBBF1E0FBBF2D
:1000D600EBBFE5BFF8E1F1BDE1BD8DE0A2E0BB27D6
:1000E600ED938A95E9F780E094E0A0E6ED93019719
:1000F600E9F7ECEAF0E085919591009761F0A5911A
:10010600B59105901590BF01F00105900D920197EC
:10011600E1F7FB01F0CFEFE5EDBFE4E0EEBFC0E6AF
:10012600D1E0F7C18A939A93AA93BA93EA93FA9382
:10013600EFB7EA937AD3F20131962F01F3013196A4
:100146003F01F40131964F01F50131965F01ECED67
:10015600F5E04E165F0620F0689420F844245524F6
:10016600E6E9F0E06E167F0620F0689421F8662432
:100176007724E0E3F5E7AE16BF0680F05BD3319651
:100186005AD5319757D36F0155D3349728F06894D1
:1001960022F8A6E0B0E052D3AA24BB24E991EFBF2F
:1001A600F991E991B991A991999189911895442468
:1001B600552466247724AA24BB24E89420F821F841
:1001C60022F8089588249924E881F9818E169F06DD
:1001D600D8F3C0C255D536D3EA81FB810E171F0767
:1001E6005CF4B89AC098EE81FF812FD3C09AEC8157
:1001F600FD812BD32DD3F0CF48D5289608953ED533
:10020600F894E0E0EFBDEEBD26D3889A9098E3E03F
:1002160025D3E2B7EA3FE8F3E0E020D3909AE2E0A4
:100226001DD3E2B7EC33E8F3E0E018D39098889852
:10023600809BFECF8099FECF809BFECF0CD302D34E
:1002460011D3BCF413D315D38099FECF15D358F030
:10025600F901A0916001B0916101809162019091D4
:1002660063010DD30FD317D31CD3809BFECFF0D2DF
:10027600E7CFF1D2E7D2F6D284F4F8D2FAD2809957
:10028600FECFFAD220F0F9010FD3F9D216D303D359
:1002960008D3809BFECFDCD2EECFDDD2D3D2E2D222
:1002A600BCF4E4D2E6D28099FECFE6D258F0F9014A
:1002B600A0916801B091690180916A0190916B01EA
:1002C600DED204D3E8D2EDD2809BFECFC1D2E7CFF7
:1002D600C2D2B8D2C7D284F4C9D2CBD28099FECFCB
:1002E600CBD220F0F901FBD2CAD202D3D4D2D9D2D2
:1002F600809BFECFADD2EECFE0916801F09169010F
:1003060060916A0170916B01FCD2E9D2BAD3E09395
:100316007001F09371016093720170937301E09123
:100326006001F09161016091620170916301E9D20F
:10033600BBD2A7D3E0937401F09375016093760165
:1003460070937701E0E0F0E060E070E0D1D2BED2D9
:10035600B4D298D2909ADBD2DFD2789494D42496F1
:100366000895E0917801F0E0E130A0E0FA0759F451
:10037600AD9AA99AA898AA9AD3D23296D5D214F44D
:10038600E2E0DED22CC0E230A0E0FA0771F4AD9ACA
:10039600DAD23297C9D214F4E3E0D2D2C1D233967C
:1003A600C3D214F0E1E0CCD21AC0E330A0E0FA07E1
:1003B600B1F4AD98C8D2A0917001B091710180914D
:1003C600720190917301662777274ED414F4E2E008
:1003D600B7D2A6D23396A8D214F0E1E0B1D20895EE
:1003E600C29AC39AC49AC59AE3E0E7BBB0D2B2995F
:1003F60002C0E89401C0689423F8A9D2B39902C058
:10040600E89401C0689424F8A2D2B49902C0E89492
:1004160001C0689425F89BD2B59902C0E89401C042
:10042600689426F894D20895DBDF23FC05C078D2C1
:10043600319601D431978ED224FC05C071D2319702
:10044600FAD3319687D2089592D27F936F93FF9312
:10045600EF93BED2AF91BF918F919F91C3D2E4E447
:10046600F0E0CFD20BC083D27F936F93FF93EF93CD
:10047600AFD2AF91BF918F919F91B4D2E881E05DE9
:10048600EA9378D162960895BFD2BED255D1E6E4FA
:10049600F0E0B7D2E0917001F091710160917201C4
:1004A60070917301A6D3E3E0EA93AED2CDDFE7E025
:1004B600EA93AAD241D1EAE4F0E0A3D231D2662788
:1004C600772797D3ECE0EA939FD2BEDF9DD29FD2E7
:1004D60033D1E0E5F0E095D2E0917401F091750139
:1004E600609176017091770184D3E3E0EA938FD22D
:1004F600ABDFE7E0EA938BD21FD1E4E5F0E081D2EF
:10050600F6016627772775D3EDE0EA9380D2ABDF55
:100516000895EFE7E8BBE3E0E7BBEFEFE5BBE4BB3D
:10052600E2BBE0E0E1BB9AD1F2D1F6D1E0E0EBBD6F
:10053600EABDE9BDE8BDE2BDB4D198D1E0E0E3BDD6
:10054600E5BFE4E0E9BFE0E0EAB9E0E8E8B9E0E009
:10055600E0BFE6B9EDB9E6BFE0E1EA933BD1A0E042
:10056600B0E06CD1A2E0B0E069D1A4E0B0E066D121
:10057600EFE1E1BDEFE0E1BD78944CD24ED275D209
:1005860016DE20FE05C0E89420F839DEEADEA895DE
:1005960021FE63C049DF25FC2EC0E0E0E09379012F
:1005A600E0937A01A0917901B0917A0118971CF530
:1005B60037D2B49902C0E89401C0689425F830D2C5
:1005C60025FE11C0EBE0F0E0E0937901F0937A01AB
:1005D6002AD221D3309719F426D228D203C023D2A7
:1005E600E0E0F0E028D3A9E7B1E0ED91FD91319686
:1005F600FE93EE93D7CF25FC20C0AED00BD225D1EB
:10060600EBE5F0E0FED1AC9814D225FC0FC0CFDDAF
:10061600E6E4F0E01AD1B49902C0E89401C0689407
:1006260025F8E6E4F0E011D1A895EFCFF3D10DD18E
:10063600AC9A92D0EFD109D1BADDF5D1ECD2309790
:1006460011F4C19A07C0C198AA24BB24E89422F8E1
:10065600CC24DD2419DFE89421F8A0E022FCA1E0F7
:10066600E1E02FD20E2EDFD1D6D2A0E0B0E02ED21E
:10067600E02181F1AC9AAB9AAD9AAA9AA89AA99A66
:100686006BD0D7D1ECE7F0E0BCD1AC9826FE0AC01F
:10069600C7D1B59902C0E89401C0689426F8C0D1C4
:1006A600A895F4CFECE2F1E0D0D026FC0AC0B8D190
:1006B600B59902C0E89401C0689426F8B1D1A8950E
:1006C600F4CFAED1B6D1E89422F8ECE2F1E0BDD099
:1006D600AC9A6DDD56CFFFCFE881E07111F0949AA8
:1006E60001C09498E881E07211F0959A01C095983E
:1006F600E881E07411F0969A01C09698E881E07856
:1007060011F0979A01C097988BE08A95F1F7939A22
:100716008BE18A95F1F793988BE18A95F1F783C07F
:10072600E88190D1E881E295E883E8818BD188EC75
:1007360090E00197F1F777C0E881F0E0E158FE4FCD
:10074600E081A981EA0F80D1E981E0938301E88104
:10075600E093840122960895E2E076D177D1ECE029
:1007660073D155D1DDDF72D1E0E0E0938401E093EF
:1007760083010895A881AA3031F0E0918501A09106
:100786008301AE1760F040D1E0918401EF5FE09302
:100796008401EA93D1DFA881AA3009F444C0E0912C
:1007A6008301EF5FE0938301919AE8814DD191989F
:1007B6003AC01A93E981FA813196E983FA8331972F
:1007C600E4911E2FE03019F01A93D4DFF3CF18818D
:1007D600239608958C9A8D9A8E9A8F9A8B9A899AD7
:1007E6008A9A939891989298E881E0938501E058C7
:1007F600E0938101E881E054E0938201E4E1F0E0D6
:100806000CD133D1E0E31ED125D124D129D1E0E2A8
:1008160019D126D1E8E218D1E4E016D1E5E814D1E1
:10082600E6E012D199DF21960895EFEFEDBDE5E000
:10083600ECBD0895A6E0B0E0EED10895E0E0F0E06A
:10084600FAD1089500E010E00895FA93EA93BACC3D
:100856000F5F1F4F089520E830E00895E3BFE0E002
:10086600E2BF08950830E0E01E070895E0E0E4BD29
:100876000895E2E0E5BD0895E4B5E13608951CD19A
:1008860000D10895E0936001F093610160936201E5
:10089600709363010895D901E2E0F0E055D19F011C
:1008A600E5CFE0E0E5BD0895A0916401B091650152
:1008B60080916601909167010895E0936401F09339
:1008C600650160936601709367010895E09368017E
:1008D600F093690160936A0170936B010895A0918A
:1008E6006C01B0916D0180916E0190916F01089538
:1008F600E0936C01F0936D0160936E0170936F014C
:100906000895A0E0B1E080E090E006D10895E0E02F
:10091600EFBDE3E0EEBD89CFE0E0E7BDE6BD0895BB
:10092600A8E0B0E078D10895A0917001B09171016E
:100936008091720190917301662777279AD1089565
:10094600E09378010895A998A898AA98E9CFE2E0DB
:10095600F0E07BCFEAE0F0E0FA93EA93E8E2F0E039
:10096600FA93EA93E1E0F0E0FA93EA9333CC2C971A
:10097600AE85BF8588899989E4E6F0E060E070E09D
:100986000DD1E887F9876A877B87A4E6B0E080E027
:1009960090E0C2D0AE85BF85888999897CD0EAE08F
:1009A600F0E060E070E0FAD0EC83FD836E837F8335
:1009B600E885F9856A857B85A4E6B0E080E090E06D
:1009C600ABD0AE85BF858889998918D15FD0089547
:1009D600EC81FD816E817F81AAE0B0E080E090E04D
:1009E6009BD0089558D000D1ED85EA93ED85EA9322
:1009F600A3DEE885E05DEA93BDDEEC81E05DEA9387
:100A0600B9CEFA93EA93D5CEE0E0EA930895E1E011
:100A1600EA930895EAE0F0E00895FA93EA930895D8
:100A2600E2E3F0E012CFAAE0B0E00895E1E0F0E002
:100A36000895E4E1F0E0F1DFEEE1F0E0EEDFF6DF6D
:100A4600ECDFC8CBEA9348CEEA936ACEE3E0F0E067
:100A5600E4DF0BC080E991E00197F1F7E0E3F2CF24
:100A660080E991E00197F1F70895E991F9913096BF
:100A760039F080EA9FE00197F1F7A8953197C9F719
:100A86000895EA0FFB1F681F791F0895EA1BFB0BE9
:100A9600680B790B0895AE1BBF0B860B970B089559
:100AA600F195E195F0400895F09560957095E19582
:100AB600FF4F6F4F7F4F08956F2F660F660B762F90
:100AC6000895EA17E1E009F0EE270895EA17FB0713
:100AD600E1E009F0EE2708957A9F702D6B9F700D67
:100AE600F89F700DE99F700D6A9F602D710DFB9F39
:100AF600600D711DE89F600D711D8827FA9FF02D0E
:100B0600610D781FEB9FF00D611D781FEA9FE02DA8
:100B1600F10D681F781F089554D0DEDF0EF4C4DF90
:100B260008950024112490E1AA0FBB1F001C111C7C
:100B36000E1A1F0A18F40E0E1F1E01C0A1609A9508
:100B460099F7FD01D00108952ED0EBDF0EF4A8DF52
:100B560008953F934F935F9300241124442755270C
:100B660030E2AA0FBB1F881F991F001C111C441FCF
:100B7600551F0E1A1F0A460B570B28F40E0E1F1E82
:100B8600461F571F01C0A1603A9559F7FD01BC01E8
:100B9600D001CA015F914F913F91089512D0D9DFDC
:100BA6000EF482DF0895E894F7FF02C079DF6894B7
:100BB600B7FF06C0A095B095119600F8039400FA09
:100BC6000895E89477FF02C06FDF689497FF0BC023
:100BD6000024A095B095809590951196801D901D46
:100BE60000F8039400FA0895A883B9838A839B8347
:100BF60008957A936A93FA93EA930895182E862FA6
:100C0600612D192E972F712D1B2EBF2FF12D1A2E08
:100C1600AE2FE12D0895119602D0FE2F1197E1997E
:100C2600FECFFF93FFB7F894AEBBBFBBE09AEDB320
:100C3600FFBFFF91089507D01196EF93EF2F03D0D2
:100C4600EF9111970895E19B02C0A895FCCF9FB73D
:100C5600F894AEBBBFBBE09A8DB3E81719F0EDBBB5
:100C6600E29AE19A9FBF0895EA17FB07680779079A
:100C76000895AE17BF078607970708953A932A93F4
:100C86001A930A9308953B812A8119810881089550
:00000001FF
