:0600000055C0FECFFDCF4C
:10000600FCCFFBCFFACFF9CFF8CF7CC0F6CFF5CF38
:10001600F4CFF3CFF2CFF1CFF0CFEFCFEECFEDCFDE
:100026001027E80364000A00010000100001100018
:100036000100F000010000000000000000000000C8
:100046002E00543A200020203E202000483A20006E
:100056002020202020200044616F205472756E6796
:100066002020202020202020202020202020205456
:100076007520446F6E67200001002D4E414E0049E9
:100086004E46000080C001000200380001007A01DF
:100096003A000A0004003C0001007B017E000200D9
:1000A6007F018A000000F894EE27ECBBF1E0FBBF6D
:1000B600EBBFE5BFF8E1F1BDE1BD8DE0A2E0BB27F6
:1000C600ED938A95E9F780E094E0A0E6ED93019739
:1000D600E9F7ECE8F0E085919591009761F0A5913C
:1000E600B59105901590BF01F00105900D9201970D
:1000F600E1F7FB01F0CFEFE5EDBFE4E0EEBFC0E6D0
:10010600D1E024C28A939A93AA93BA93EA93FA9374
:10011600EFB7EA936AD3F20131962F01F4013196D3
:100126004F01E8E9F8E04E165F0638F0689420F8CB
:1001360044245524F60131966F01E8ECF0E05AD3D9
:1001460009F45BD3E0E9F1E055D309F456D3E8E5C9
:10015600F2E050D309F451D3E0E2F3E04BD309F4D3
:100166004CD3E8EEF3E046D309F447D3E0EBF4E0F2
:1001760041D309F442D3E8E7F5E03CD309F43DD393
:10018600E0E4F6E037D311F438D3A895E8E0F7E0D9
:1001960031D309F432D3E0EDF7E02CD309F42DD3B3
:1001A600ECE1F0E0CE16DF06A8F02AD331962BD587
:1001B600319726D3E0936001F093610121D3E83CA7
:1001C600A0E0FA0728F0689422F8A6E0B0E01CD375
:1001D600CC24DD24E991EFBFF991E991B991A99178
:1001E6009991899118954424552466247724AA2444
:1001F600BB24CC24DD24E89420F821F822F823F847
:10020600089588249924E881F9818E169F06D8F3EB
:1002160083C21ED5FDD2FFD234F402D3F2DF07D358
:10022600F0DF0BD3F8CF0AC013D5F2D2F4D234F4F0
:10023600F7D20ED4FCD20CD400D3F8CF0ED5289624
:10024600089504D5F894E0E0EFBDEEBD889A909845
:10025600F7D2FED3909A80EA8A95F1F7909888981B
:10026600809BFECF8099FECF809BFECFEED2F0D250
:10027600BCF4F2D2F4D28099FECFF4D258F0F90150
:10028600A0916201B0916301809164019091650132
:10029600ECD2EED2F6D2FBD2809BFECFCED2E7CF07
:1002A600D4D2D6D284F4D8D2DAD28099FECFDAD29A
:1002B60020F0F901EFD2D9D2F6D2E3D2E8D2809B70
:1002C600FECFBBD2EECFC1D2C3D2BCF4C5D2C7D209
:1002D6008099FECFC7D258F0F901A0916A01B0917A
:1002E6006B0180916C0190916D01BFD2E5D2C9D2AC
:1002F600CED2809BFECFA1D2E7CFA7D2A9D284F4DB
:10030600ABD2ADD28099FECFADD220F0F901DDD2CD
:10031600ACD2E4D2B6D2BBD2809BFECF8ED2EECF89
:10032600E0916A01F0916B0160916C0170916D0131
:10033600DED2CBD299D3E0937201F093730160932E
:10034600740170937501E0916201F091630160910F
:10035600640170916501CBD29DD286D3E09376017C
:10036600F09377016093780170937901E0E0F0E013
:1003760060E070E0B3D2A0D296D27AD2909A6CD2D4
:1003860086D2BBD2BFD2789466D424960895E091E3
:100396007A01F0E0E130A0E0FA0759F4AD9AA99AA3
:1003A600A898AA9AB3D23296B5D214F4E2E0BED295
:1003B6002DC0E230A0E0FA0771F4AD9ABAD23197B7
:1003C600A9D214F4E3E0B2D2A1D23596A3D214F0A6
:1003D600E1E0ACD21BC0E330A0E0FA07B9F4AD9877
:1003E600A8D23196A0917201B091730180917401E7
:1003F60090917501662777271FD414F4E2E096D210
:1004060085D2359687D214F0E1E090D2089595D240
:100416007F936F93FF93EF93C1D2AF91BF918F916B
:100426009F91C6D2E6E4F0E0D2D20BC086D27F938B
:100436006F93FF93EF93B2D2AF91BF918F919F913C
:10044600B7D2E881E05DEA9377D162960895C2D289
:10045600C1D254D1E8E4F0E0BAD2E0917201F09151
:1004660073016091740170917501ABD3E3E0EA9377
:10047600B1D2CDDFE7E0EA93ADD240D1ECE4F0E0D3
:10048600A6D244D2662777279CD3ECE0EA93A2D281
:10049600BEDFA0D2A2D232D1E2E5F0E098D2E0915E
:1004A6007601F0917701609178017091790189D395
:1004B600E3E0EA9392D2ABDFE7E0EA938ED21ED175
:1004C600E6E5F0E084D2E0916001F0916101E7D2C7
:1004D60078D3EDE0EA9381D2A9DF0895C29AC39A50
:1004E600C49AC59AE3E0E7BB7BD2B29902C0E8940E
:1004F60001C0689424F874D2B39902C0E89401C08C
:10050600689425F86DD2B49902C0E89401C0689445
:1005160026F866D2B59902C0E89401C0689427F817
:100526005FD20895DBDF24FC07C0F0D131966BD390
:1005360031975BD26EDE8BDF25FC07C0E7D13197A2
:1005460062D3319652D265DE82DF0895EFE7E8BBCB
:10055600E3E0E7BBEFEFE5BBE4BBE2BBE0E0E1BB1A
:10056600E3BFE2BFCAD1CED1E0E0EBBDEABDE9BD53
:10057600E8BDE2BD8CD170D1E0E0E3BDE5BFE4E0CB
:10058600E9BFE0E0EAB9E0E8E8B9E0E0E0BFE6B9F3
:10059600EDB9E6BFE0E1EA93FFD0A0E0B0E034D1E8
:1005A600A2E0B0E031D1A4E0B0E02ED1EFE1E1BDB0
:1005B600EFE0E1BD789422D2E0E5F0E024D234DE2B
:1005C60012DE20FE05C0E89420F83BDEE0DE3FDFC9
:1005D60021FE13C0A7DF26FC0EC018D204D3309725
:1005E60021F414D2E1E0F0E003C010D2E0E0F0E044
:1005F6000AD3FBD10EDEE89421F808D2F4D2309764
:1006060009F040C0C19A22FE3CC0A895AC9AAB9AAC
:10061600AD9AAA9AA89AA99A81D0F0D1EEE1F0E013
:10062600F2D1F7DDEDE5F0E0D2D127FE0AC0F1D137
:10063600B59902C0E89401C0689427F8F0D1A8954E
:10064600F4CFE8ECF0E0FA93EA93DBDD27FC0AC08E
:10065600E0D1B59902C0E89401C0689427F8DFD1CB
:10066600A895F4CFCBD1EEE1F0E0CDD1D2DDEEE529
:10067600F1E0FA93EA93C5DDAC9AB5DDE89422F889
:10068600FFCF0AC0C198CC24DD24E0E0E0936001EE
:10069600E0936101E89422F894CFFFCFE881E071FE
:1006A60011F0949A01C09498E881E07211F0959A3D
:1006B60001C09598E881E07411F0969A01C0969869
:1006C600E881E07811F0979A01C097988BE08A95B7
:1006D600F1F7939A8BE18A95F1F793988BE18A95D6
:1006E600F1F781C0E881A0D1E881E295E883E8814D
:1006F6009BD188EC90E00197F1F775C0E881F0E0B6
:10070600E158FE4FE081A981EA0F90D1E981E0939B
:100716008301E881E093840122960895E2E086D180
:1007260087D1ECE083D159D1DDDF82D1E0E0E093DF
:100736008401E09383010895A881AA3031F0E09105
:100746008501A0918301AE1760F044D1E091840148
:10075600EF5FE0938401EA93D1DFA881AA3009F420
:1007660042C0E0918301EF5FE0938301919AE881B3
:100776005DD1919838C01A93E981FA813196E9835F
:10078600FA833197E4911E2FE03019F01A93D4DFE3
:10079600F3CF1881239608958C9A8D9A8E9A8F9A04
:1007A6008B9A899A8A9A939891989298E881E0937D
:1007B6008501E058E0938101E881E054E0938201ED
:1007C6001DD146D1E0E330D138D137D13CD1E0E27A
:1007D6002BD139D1E8E22AD1E4E028D1E5E826D1C7
:1007E600E6E024D19BDF21960895EFEFEDBDE5E02D
:1007F600ECBD0895E415F5050895689421F808956B
:10080600A6E0B0E0F0D10895E0E0F0E0FCD1089574
:1008160000E010E00895EA81FB810E171F07089596
:10082600B89AC098EE81FF81FA93EA930895C09A28
:10083600EC81FD81FA93EA9308950F5F1F4F0895A7
:10084600E1E0F0E0FA93EA93089520E830E0E0CFA3
:100856000830E0E01E070895E0E0E4BD0895E2E018
:10086600E5BD0895E4B5E136089519D1FDD00895A2
:10087600E0936201F09363016093640170936501F4
:100886000895D901E2E0F0E047D19F01E5CFE0E02D
:10089600E5BD0895A0916601B09167018091680158
:1008A600909169010895E0936601F0936701609362
:1008B6006801709369010895E0936A01F0936B01F2
:1008C60060936C0170936D010895A0916E01B091D3
:1008D6006F0180917001909171010895E0936E010E
:1008E600F0936F0160937001709371010895A0E019
:1008F600B1E080E090E0F8D00895E0E0EFBDE3E0FD
:10090600EEBD73CFE0E0E7BDE6BD0895A8E0B0E038
:100916006AD10895A0917201B0917301809174011A
:1009260090917501662777278CD10895E0937A0117
:100936000895A998A898AA98E9CF2C97AE85BF855F
:1009460088899989E4E6F0E060E070E00FD1E887F5
:10095600F9876A877B87A4E6B0E080E090E0C4D0A0
:10096600AE85BF858889998989D0EAE0F0E060E0A4
:1009760070E0FCD0EC83FD836E837F83E885F98588
:100986006A857B85A4E6B0E080E090E0ADD0AE85D8
:10099600BF85888999891AD16CD00895EC81FD812B
:1009A6006E817F81AAE0B0E080E090E09DD008955E
:1009B60065D002D1ED85EA93ED85EA939FDEE88561
:1009C600E05DEA93B9DEEC81E05DEA93B5CEFA9399
:1009D600EA93D1CEE0E0EA930895E1E0EA93089540
:1009E600E2E0F0E0FA93EA930CCCEAE0F0E0FA9366
:1009F600EA93E8E2F0E0FA93EA9322CFE4E1F0E04A
:100A0600FA93EA930895FA93EA931ACFAAE0B0E02C
:100A16000895AC98E2E3F0E0FA93EA93F2CBE2E3CE
:100A2600F0E0FA93EA93EDCBEA9338CEEA935ACE06
:100A3600E3E0F0E0FA93EA930BC080E991E00197D6
:100A4600F1F7E0E3F1CF80E991E00197F1F708953E
:100A5600E991F991309639F080EA9FE00197F1F734
:100A6600A8953197C9F70895EA0FFB1F681F791FEC
:100A76000895EA1BFB0B680B790B0895AE1BBF0BA1
:100A8600860B970B0895F195E195F0400895F09542
:100A960060957095E195FF4F6F4F7F4F08956F2FCB
:100AA600660F660B762F08957A9F702D6B9F700DDB
:100AB600F89F700DE99F700D6A9F602D710DFB9F69
:100AC600600D711DE89F600D711D8827FA9FF02D3E
:100AD600610D781FEB9FF00D611D781FEA9FE02DD9
:100AE600F10D681F781F089554D0DEDF0EF4CFDFB6
:100AF60008950024112490E1AA0FBB1F001C111CAD
:100B06000E1A1F0A18F40E0E1F1E01C0A1609A9538
:100B160099F7FD01D00108952ED0EBDF0EF4B3DF77
:100B260008953F934F935F9300241124442755273C
:100B360030E2AA0FBB1F881F991F001C111C441FFF
:100B4600551F0E1A1F0A460B570B28F40E0E1F1EB2
:100B5600461F571F01C0A1603A9559F7FD01BC0118
:100B6600D001CA015F914F913F91089512D0D9DF0C
:100B76000EF48DDF0895E894F7FF02C084DF6894D1
:100B8600B7FF06C0A095B095119600F8039400FA39
:100B96000895E89477FF02C07ADF689497FF0BC048
:100BA6000024A095B095809590951196801D901D76
:100BB60000F8039400FA0895A883B9838A839B8377
:100BC60008957A936A93FA93EA930895182E862FD6
:100BD600612D192E972F712D1B2EBF2FF12D1A2E39
:100BE600AE2FE12D0895119602D0FE2F1197E199AF
:100BF600FECFFF93FFB7F894AEBBBFBBE09AEDB351
:100C0600FFBFFF91089507D01196EF93EF2F03D002
:100C1600EF9111970895E19B02C0A895FCCF9FB76D
:100C2600F894AEBBBFBBE09A8DB3E81719F0EDBBE5
:100C3600E29AE19A9FBF0895EA17FB0768077907CA
:100C46000895AE17BF078607970708953A932A9324
:100C56001A930A9308953B812A8119810881089580
:00000001FF
