:0600000036C0FECFFDCF6B
:10000600FCCFFBCFFACF7AC1F8CFF7CFF6CFF5CF3B
:10001600F4CFF3CFF2CFF1CFF0CFEFCFEECFEDCFDE
:100026000000000000002E005374617274205379A2
:100036007374656D2E2E2E2E2E003E20003E004639
:100046000061006900720079002D0045006C0062B5
:10005600000080C001000200260004000400280001
:100066000200840158000000F894EE27ECBBF1E092
:10007600FBBFEBBFE5BFF8E1F1BDE1BD8DE0A2E05E
:10008600BB27ED938A95E9F780E094E0A0E6ED932F
:100096000197E9F7EAE5F0E085919591009761F01F
:1000A600A591B59105901590BF01F00105900D92AF
:1000B6000197E1F7FB01F0CFEFE5EDBFE4E0EEBF1E
:1000C600C0E6D1E084C1F2D27F936F93FF93EF93A2
:1000D6001ED3AF91BF918F919F9123D3ECE2F0E0B5
:1000E6002FD3AAD20BC0E2D27F936F93FF93EF93E5
:1000F6000ED3AF91BF918F919F9113D3E881E05DAD
:10010600EA9388D262960895E0E0F0E060E070E05D
:100116001AD322D32AD332D33AD3EFEFE1BB909846
:1001260080EA9FE00197F1F7909A80EA8A95F1F7C5
:100136009098EEEFE1BB809BFECF8099FECF809B2F
:10014600FECF25D331D33AD3BCF448D34AD38099D2
:10015600FECF4AD358F04BD3A0916401B09165010C
:10016600809166019091670111D408D349D35ED37B
:10017600809BFECF5ED3E7CF0AD316D31FD37CF482
:100186002DD32FD38099FECF2FD318F030D35AD347
:10019600ECD236D34BD3809BFECF4BD3EFCFF7D2E7
:1001A60003D30CD3BCF41AD31CD38099FECF1CD333
:1001B60058F01DD3A0916C01B0916D0180916E0134
:1001C60090916F01E3D3C8D21BD330D3809BFECF6F
:1001D60030D3E7CFDCD2E8D2F1D27CF4FFD201D320
:1001E6008099FECF01D318F002D336D3ACD208D310
:1001F6001DD3809BFECF1DD3EFCFC9D2E0916C01FA
:10020600F0916D0160916E0170916F012FD324D32F
:10021600E0937801F093790160937A0170937B0102
:10022600E0916401F091650160916601709167014A
:100236001DD308D3E0937C01F0937D0160937E018A
:1002460070937F01EFEFE1BB909A0895B09919C0C2
:10025600999909C011D3E2E7F1E057D410D3E8E544
:10026600F2E053D4F5CF0ED310D30CD3E139A1E08D
:10027600FA0724F001D3E0E9F1E047D403D309D328
:10028600E5CF989910C0FED231973FD43196FAD275
:10029600E436A0E0FA0724F4EFD2E4E6F0E035D441
:1002A600F1D2F7D2EECFB19916C0989906C0AAE15D
:1002B600B0E0E0E0F0E029D4F8CFF6D2E6D2F4D20E
:1002C600E132A3E0FA0724F0DAD2E0E2F3E01DD44B
:1002D600EBD2EDD2E8CF999910C0E6D2319715D47A
:1002E6003196E2D2E039A1E0FA0724F4C8D2E0E977
:1002F600F1E00BD4D9D2DBD2EECF08950A921A924E
:10030600FA926A937A938A939A93AA93BA93EA9300
:10031600FA93EFB7EA93F20131962F01A0E8B1E024
:10032600C3D3EF5FFF4F6F4F7F4FC3D3A0918001C1
:10033600B09181018091820190918301A038E1E51D
:10034600BE07E1E08E07E0E09E0721F4AAE1B0E0F7
:10035600CCD39BD2AAE1B0E0C8D3E93EA3E0FA072A
:100366004CF0F89447D1EFEFE5BBE8EEF3E0AAD204
:100376006DDFF0CFEDE1FCE1E415F50521F4AC9875
:10038600F30131963F01E0E2FCE1E415F50519F4CD
:1003960044245524AC9A20FC0AC0A0E0AD99A1E003
:1003A600E1E0EA2711F4AD9801C0AD9A01C0AD9A1B
:1003B600ABDEE991EFBFF991E991B991A9919991D4
:1003C600899179916991F990199009901895EFEFB3
:1003D600E8BBE0E0E7BBEFEFE5BBECEFE4BBE0E05A
:1003E600E2BBE1BB23D2FAD16FD2E0E0E2BDE5BDCC
:1003F600E4BDE3BDE5BFE0E1E9BFE0E0EAB9E0E87E
:10040600E8B9E0E0E0BFE6B9EDB9E6BFE0E1EA93BE
:1004160024D1EEE2F0E069D26AD26CD2DFD0E0E419
:10042600F0E063D2E4EFF1E04DD2E3E4F0E05DD238
:1004360064D2E5E4F0E059D260D2E7E4F0E055D2C8
:100446005CD2E9E4F0E051D258D2EBE4F0E04DD2D0
:1004560054D2EDE4F0E049D250D2EFE4F0E045D2D8
:100466004CD2E1E5F0E041D248D2E3E5F0E03DD2FE
:1004760044D2E7E4F0E039D240D2E5E5F0E035D207
:100486003CD2E0E4F0E031D238D2E3E4F0E02DD221
:10049600AD98ECE2F1E016D2AD9AE4E1F5E012D2C5
:1004A600A9D012D27894D2DE22D221D297D0E0916E
:1004B6007801F091790160917A0170917B0103D303
:1004C60019D215D200DEDED11BD211D2FCDD0FD23D
:1004D60011D284D0E0917C01F0917D0160917E0182
:1004E60070917F01F0D206D205D2EDDDDDD108D2C2
:1004F60001D2E9DDF30109D2E6D2EDE0EA93F7D1C4
:10050600F2DDC0D1359703D21ED30CF4AA98BAD126
:100516003596FDD113D30CF4AA9AC6D1749700D29E
:1005260012D30CF4AB98C0D17496FAD107D30CF45D
:10053600AB9AFFD1EEE5F1E060E070E043D20E2E1B
:1005460001D2E4EFF1E060E070E03CD20E2AF1D196
:10055600E1E8F1E060E070E03DD20E2AF3D1E0E29E
:10056600F3E060E070E036D2E02919F0E89420F874
:1005760003C0689420F8AD9A96CFFFCFE881E0716A
:1005860011F0949A01C09498E881E07211F0939A60
:1005960001C09398E881E07411F0929A01C0929894
:1005A600E881E07811F0919A01C091988BE08A95E4
:1005B600F1F7959A8BE18A95F1F795988BE18A95F3
:1005C600F1F772C0E881C7D1E881E295E883E88156
:1005D600C2D188EC90E00197F1F766C0E881F0E0BF
:1005E600EC57FE4FE081A981EA0FB7D19980888048
:1005F60022960895E2E0B1D1E3E0F0E063D1ECE0C9
:10060600ACD178D1DFDFE3E0F0E05CD1E0E08E2E24
:100616009E2E0895A881AA3011F09B1438F067D158
:1006260083948A92DBDFA881AA30F1F19394979A9A
:10063600E88193D1979838C01A93E981FA81319667
:10064600E983FA833197E4911E2FE03019F01A936B
:10065600E1DFF3CF1881239608958C9A8B9A8A9AB4
:10066600899A8D9A8F9A8E9A959897989698B88027
:10067600E881E058E0938601E881E054E093870141
:10068600E4E1F0E01FD1E0E366D169D168D16DD134
:10069600E0E261D16AD1E8E260D1E4E05ED1E5E86A
:1006A6005CD1E6E05AD1A6DF219608952C97AE8557
:1006B600BF8588899989E4E6F0E060E070E0DCD1E6
:1006C600E887F9876A877B87A4E6B0E080E090E058
:1006D600A9D1AE85BF858889998962D1EAE0F0E023
:1006E60060E070E0C9D1EC83FD836E837F83E8858B
:1006F600F9856A857B85A4E6B0E080E090E092D13A
:10070600AE85BF8588899989E3D145D10895EC8165
:10071600FD816E817F81AAE0B0E080E090E082D129
:1007260008953ED1CBD1ED85EA93ED85EA9356DF68
:10073600E885E05DEA936EDFEC81E05DEA936ACFDF
:10074600FA93EA930895E0937001F0937101609330
:100756007201709373010895E0936C01F0936D013B
:1007660060936E0170936F010895E0936801F093B2
:10077600690160936A0170936B010895E0936401C7
:10078600F093650160936601709367010895E0E850
:10079600F0E060E070E0E0937401F093750160931F
:1007A6007601709377010895E0E0E0936001E093AD
:1007B6006101E0936201E09363010895A0916001F5
:1007C600B09161018091620190916301A830E0E0EF
:1007D600BE07E0E08E07E0E09E070895E0E0E2BF96
:1007E6000895E2E0E3BF0895E2B7E1360895E091A7
:1007F6007401F09175016091760170917701089509
:10080600A0917401B0917501809176019091770164
:10081600E2E0F0E060E070E02FD1E0937401F09345
:1008260075016093760170937701D8CFE0E0E3BF5E
:100836000895A0E6B1E038D1EF5FFF4F6F4F7F4FCD
:1008460038D10895A0916801B091690180916A013B
:1008560090916B019BD00895A0917001B0917101A8
:10086600809172019091730191D00895A0E0B1E05A
:1008760080E090E0D7D00895A0E1B0E00895A5E12A
:10088600B0E00895F9DF31D1089531963ED1319720
:10089600089593D018D1E7E0EA93E0E0EA9313DCF9
:1008A600ECE2F1E04DDF66C0EADF1FD1089585D0A6
:1008B6000AD1E7E0EA93E1E0EA9305DCECE2F1E055
:1008C6003FDF58C03DDF56C0E0E0EFBDEDE0EEBDD6
:1008D600E0E0EDBDECBDE7BDE6BDEDE3EBBDE9E077
:1008E600EABDE0E0E9BDE8BD08952ADFA5CEE0E077
:1008F600EA930895E1E0EA930895E8ECF0E0E2CFA8
:100906005CD0E1D0E7E0EA93089557D00895A0912E
:100916007801B091790180917A0190917B01F5CFB0
:10092600A0917C01B0917D0180917E0190917F0123
:10093600ECCFA0917801B091790180917A019091E4
:100946007B010895A0917C01B0917D0180917E018B
:1009560090917F010895EA9311CEEA9333CE80E910
:1009660091E00197F1F7E0E3F6CF80E991E0019796
:10097600F1F70895E991F991309639F080EA9FE010
:100986000197F1F7A8953197C9F70895EA0FFB1F6C
:10099600681F791F0895EA1BFB0B680B790B0895F6
:1009A600AE1BBF0B860B970B0895F095609570955F
:1009B600E195FF4F6F4F7F4F08956F2F660F660BC0
:1009C600762F0895AE17BF0786079707E1E00CF06C
:1009D600EE270895EA17FB0768077907E1E00CF0B0
:1009E600EE2708957A9F702D6B9F700DF89F700DFE
:1009F600E99F700D6A9F602D710DFB9F600D711D43
:100A0600E89F600D711D8827FA9FF02D610D781FF4
:100A1600EB9FF00D611D781FEA9FE02DF10D681F19
:100A2600781F08952ED0DEDF0EF4BFDF08953F93C2
:100A36004F935F93002411244427552730E2AA0FD1
:100A4600BB1F881F991F001C111C441F551F0E1A1F
:100A56001F0A460B570B28F40E0E1F1E461F571F64
:100A660001C0A1603A9559F7FD01BC01D001CA0148
:100A76005F914F913F91089504D0D9DF0EF495DF31
:100A86000895E89477FF02C090DF689497FF0BC043
:100A96000024A095B095809590951196801D901D87
:100AA60000F8039400FA0895ED91FD916D917D9102
:100AB60008957E936E93FE93EE930895A883B9836B
:100AC6008A839B8308957A936A93FA93EA930895A7
:100AD600182E862F612D192E972F712D1B2EBF2FA5
:100AE600F12D1A2EAE2FE12D0895119602D0FE2F6C
:100AF6001197E199FECFFF93FFB7F894AEBBBFBB4A
:100B0600E09AEDB3FFBFFF91089507D01196EF93DA
:100B1600EF2F03D0EF9111970895E19B02C0A8959E
:100B2600FCCF9FB7F894AEBBBFBBE09A8DB3E81776
:100B360019F0EDBBE29AE19A9FBF0895EA17FB0709
:100B4600680779070895AE17BF07860797070895C0
:00000001FF
