:020000000C945E
:1000020051000C9400000C9400000C9400000C941D
:1000120000000C9400000C9400000C9400000C945E
:1000220000000C9400000C9400000C9400000C944E
:1000320000000C9400000C9400000C9400000C943E
:1000420000000C9400000C9400000C9400000C942E
:1000520000000C9400000C9400000C9400000C941E
:1000620000000C9400000C9400000C9400000C940E
:1000720000000C9400000C9400000C9400000C94FE
:1000820000000C9400000C9400002D004E512046FC
:1000920061697279000080C00200040598000000C6
:1000A200F894EE27ECBBF1E0F5BFE5BFE0936C00FE
:1000B200F8E1F1BDE1BD8DE0A2E0BB27ED938A95A9
:1000C200E9F780E090E1A0E0B1E0ED930197E9F774
:1000D200EAE9F0E085919591009761F0A591B591DB
:1000E20005901590BF01F00105900D920197E1F77F
:1000F200FB01F0CFEFEFEDBFE0E1EEBFC0E0D5E0F6
:100102000C9464016497ED89EA93ED89EA930E9465
:100112003102A98DAA2382F4ECE8F0E0FA93EA9383
:100122000E945E02EE89FF89688D798D0E94180314
:10013200EE8BFF8B688F798F0E949E02E0E1F7E2DF
:1001420060E070E00E946A03E88BF98B6A8B7B8B1C
:100152000E94A3020E941303E8EEF3E060E070E065
:100162000E946A03EC87FD876E877F870E94A30245
:100172000E94AE027F936F93FF93EF930E94B302AC
:10018200AF91BF918F919F910E941303E4E6F0E03B
:1001920060E070E00E946A03E887F9876A877B87DC
:1001A2000E94A3020E94AE027F936F93FF93EF938C
:1001B2000E94B302AF91BF918F919F910E94AE02B4
:1001C2007F936F93FF93EF930E94BE02AF91BF9113
:1001D2008F919F910E941303EAE0F0E060E070E0EB
:1001E2000E946A03EC83FD836E837F830E94A302D5
:1001F2000E94AE027F936F93FF93EF930E94B3022C
:10020200AF91BF918F919F910E94AE027F936F93A6
:10021200FF93EF930E94BE02AF91BF918F919F9186
:100222000E94AE027F936F93FF93EF93EC81FD8167
:100232006E817F81AAE0B0E080E090E00E944003FE
:10024200AF91BF918F919F910E9413030E948203ED
:1002520074D1A131E7E2BE07E0E08E07E0E09E073D
:100262001CF0E8890E94C90268D1A93EE3E0BE07FA
:10027200E0E08E07E0E09E0714F0EC8589D15DD1C5
:10028200A536E0E0BE07E0E08E07E0E09E0714F04E
:10029200E8857ED152D1AB30E0E0BE07E0E08E07C8
:1002A200E0E09E0714F0EC8173D1E88171D16A9687
:1002B2000895A79AAF98EEE1F0E06DD1AF9AE6E427
:1002C200F0E069D10895E0E0EBBBEABBEFEFE8BBF9
:1002D200E7BBE0E0E5BBE4BBE2BBE1BBE3B9E2B90B
:1002E200E0936200E0936100E0936500E0936400B4
:1002F200E0BFE3BFE2BFE1BFE2ECEFBDE9E1EEBD8B
:10030200E0E0EDBDECBDE7BDE6BDE0E6FAEEF7BD2F
:10031200E6BDE0E0EBBDEABDE9BDE8BDE0937900F2
:10032200E0937800E5BDE4BDE3BDE0938B00E0938C
:100332008A00E0938900E0938800E0938100E093D3
:100342008000E0938700E0938600E0938500E093CD
:100352008400E0938300E0938200E0936A00EABFA6
:10036200E9BFE7BFE0937D00EAB9E0939A00E0E8D5
:10037200E8B9E0E0E0BDE6B9EDB9E0937400E4E18C
:10038200EA93ACD0EEE8F0E0FA93EA9396D05524E3
:10039200E4E05E1618F48DDF5394FACF6ED0E4EFEA
:1003A200F1E0F9D0E0E0E0930005E0930105E0938D
:1003B2000205E0930305A0910005B091010580912B
:1003C200020590910305A136EAEEBE07E0E08E0732
:1003D200E0E09E073CF4E3D0EE5CFF4F6F4F7F4FAF
:1003E200E7D0E9CFA0910305AA233AF0D8D0E2538F
:1003F200F04060407040DCD0F5CFD4CFFFCFE88131
:10040200E07111F01C9A01C01C98E881E07211F0B1
:100412001D9A01C01D98E881E07411F01E9A01C076
:100422001E98E881E07811F01F9A01C01F9887E0BA
:100432008A95F1F71A9A82E18A95F1F71A9882E180
:100442008A95F1F778C0E881EA93D9DFE881E295ED
:10045200E883E881EA93D3DF88EB8A95F1F76BC0F2
:10046200E881F0E0EC5FFA4FE081A981EA0FEA93BC
:10047200EADF4980788022960895E2E0B5D0ECE088
:10048200EA93E1DFE1E0B0D0E0E07E2E4E2E089567
:10049200A881AA3011F0461448F0E0E0EA93739480
:1004A2007A92DEDFA881AA3009F445C04394189AF3
:1004B200E881EA93C8DF18983EC01A93E981FA816D
:1004C2003196E983FA833197E4911E2FE03019F0D7
:1004D2001A93DEDFF3CF188123960895149A159AA2
:1004E200169A179A129A109A119A1A981898199895
:1004F2006880E881E058E0930605E881E054E093E3
:100502000705E4E1F0E047D074D073D072D0E0E2A6
:10051200EA9375DF84E191E00197F1F7E8E2EA936B
:1005220092DFE4E0EA938FDFE5E8EA938CDFE6E02E
:10053200EA9389DFA2DF21960895AE89BF89888D6B
:10054200998D0895E889F9896A897B89A0E1B7E2E2
:1005520080E090E00E944003F0CF0E948C030E9452
:100562000E030895EC85FD856E857F85A8EEB3E0C8
:1005720080E090E00E9440030895E885F9856A854D
:100582007B85A4E6B0E080E090E00E9440030895FD
:10059200E05DEA937DCFFA93EA930C940203E09133
:1005A2000005F0910105609102057091030508951F
:1005B200E0930005F0930105609302057093030533
:1005C200E0910005F0910105FBBDEABDEAB5FBB57E
:1005D200662777270E948703E0E0EA93EA930E9466
:1005E2008300EAE0F0E0D7CFEA932DDFE3E0F0E02A
:1005F200D2CFE0E3EA9303DF84E191E00197F1F7E0
:100602000895E991F991309639F08DEC9AE00197CD
:10061200F1F7A8953197C9F70895EA1BFB0B680B10
:10062200790B0895AE1BBF0B860B970B0895F095BF
:1006320060957095E195FF4F6F4F7F4F08957A9FB8
:10064200702D6B9F700DF89F700DE99F700D6A9F62
:10065200602D710DFB9F600D711DE89F600D711D76
:100662008827FA9FF02D610D781FEB9FF00D611D19
:10067200781FEA9FE02DF10D681F781F08952ED094
:10068200DEDF0EF4D4DF08953F934F935F9300248F
:1006920011244427552730E2AA0FBB1F881F991F38
:1006A200001C111C441F551F0E1A1F0A460B570B24
:1006B20028F40E0E1F1E461F571F01C0A1603A9557
:1006C20059F7FD01BC01D001CA015F914F913F91E1
:1006D200089504D0D9DF0EF4AADF0895E89477FFD5
:1006E20002C0A5DF689497FF0BC00024A095B095C7
:1006F200809590951196801D901D00F8039400FA44
:100702000895A883B9838A839B8308957A936A9311
:10071200FA93EA930895182E862F612D192E972F9A
:10072200712D1B2EBF2FF12D1A2EAE2FE12D089504
:00000001FF
